:0300000002337058
:0C337000787FE4F6D8FD75815D0233B76C
:1018FB006100000000FFFFFFFFFFFF000ED432313D
:10190B0000888888201C0103800C07780A0DC9A069
:10191B005747982712484C000000010101010101B3
:10192B0001010101010101010101023A8018713825
:10193B002D40582C450080387400001E000000001C
:10194B00000000000000000000000000000000008C
:10195B0000FC000A202020202020202020202020F6
:10196B00000000FC004C6F6E7469756D0A2020201E
:10197B0020200139020312F123090707830100001C
:10198B0065030C00100000000000000000000000C8
:10199B00000000000000000000000000000000003C
:1019AB00000000000000000000000000000000002C
:1019BB00000000000000000000000000000000001C
:1019CB00000000000000000000000000000000000C
:1019DB0000000000000000000000000000000000FC
:1019EB0000000000000000000000000000000000EC
:0419FB00000000B632
:0B2046009002BEEBF0A3EAF0A3E9F06B
:102051009002AEE0FEA3E0FF9002ADE02FFF900200
:10206100ACE03EFE9002B1E02FFF9002B0E03E9066
:1020710002C1F0A3EFF09002B7E0FF9002B6E02FAB
:10208100FFE433FE9002B8E07C002FFFEC3E9002AB
:10209100C3F0A3EFF0E47B0AFAF9F89002A4E0FCA4
:1020A100A3E0FDA3E0FEA3E0FF1206B59002BEE0AF
:1020B100FBA3E0FAA3E0F9EF120579E47B0AFAF950
:1020C100F89002A4E0FCA3E0FDA3E0FEA3E0FF1270
:1020D10006B5E4FB7A01F9F81206B59002BEE0FB01
:1020E100A3E0FAA3E0F9900001EF12058B9002AA98
:1020F100E0FEA3E090000212058B9002C2E0900086
:102101000312058BEEC4F8540FC868FFAD079002A7
:10211100C1E02D90000412058B9002B5E0900005FE
:1021210012058B9002C4E090000612058B9002B458
:10213100E0C4F8540FC868FFAC079002C3E02C90CC
:10214100000712058B9002ADE090000812058B90FC
:1021510002AFE090000912058B9002B6E0540FC463
:1021610054F0FFA3E0540F2F90000A12058B900248
:10217100AEE0C4F8540FC868FFAC079002ACE07E33
:10218100007806C333CE33CED8F92CFF9002B6E0E7
:10219100C4540F25E025E02FFFA3E0C4540F2F9076
:1021A100000B12058B9002ABE090000C12058B9096
:1021B10002B5E090000D12058B9002B4E02D900065
:1021C1000E12058B9002B9E025E04418FFA3E0252B
:0A21D100E025E04F90001102058B9D
:0B33FC009002BEEBF0A3EAF0A3E9F0A2
:10340700E4FFFEEEC3947F7480948050189002BE50
:10341700E0FBA3E0FAA3E0F98E8275830012054C66
:103427002FFF0E80DEC3E49FFF9002BEE0FBA3E008
:10343700FAA3E0F990007FEF12058BE4FFFEEEC3DD
:10344700947F74809480501EEE2480FDE433FC90BA
:1034570002BEE0FBA3E0FAA3E0F98D828C8312059C
:103467004C2FFF0E80D8C3E49FFF9002BEE0FBA362
:0C347700E0FAA3E0F99000FFEF02058BE3
:0B19FF004402E6000000004102DA0094
:101A0A005702A400024414089807800058002C00CA
:101A1A009404650438040524010143029E0A020065
:0F1A2A004302A104070046029816052511250165
:103A9F00900298E090D20CF0900299E090D20DF045
:103AAF0090029AE090D20EF090029BE090D20FF02D
:103ABF0090029CE090D210F090029DE090D211F015
:013ACF0022D4
:103C4B009002DB7401F09002E4F0E49002D8F09063
:103C5B0002E004F09002EBF09002E5F09002F074B9
:053C6B0008F0021B1F20
:103DE100758911C28CC28A758CF7758A40C28E752D
:093DF1008DB1758BE075A88E22DE
:070003009090627499F02255
:103DFA0090B012743CF090DAA3744BF090DAA47489
:093E0A0005F090B0307446F0227E
:103E130090DAA374E1F090DAA47405F090B03074F2
:093E230042F090B012743EF0224E
:103A330090C1AF74C3F090DAFC740FF090DAA37402
:103A4300E1F090DAA47405F090B0307442F0900283
:103A5300D9E0441190D800F090B012743EF0E478AD
:063A630043F67823F62271
:073D9100F0123E77123DC75E
:103D980090D005E04440F090A0307480F090C006C8
:043DA8007408F02289
:103BD70090A09074FBF090B005746FF07F017E00A9
:103BE700123B6690B00574E0F07F017E00123B66E1
:073BF70090B005742BF022D1
:103E770090D005E04403F090A0A174FFF0747FF0A8
:053E870090A091F02263
:103DC700E490D219F090D21C74FEF090A090E054C9
:0A3DD700FEF090A0A0E054FEF022E0
:1037FE00780DE664017046F690024AE06411700C92
:10380E00780E76017406F0E4900258F090024AE0C9
:10381E00640670297F587E02123B6690026E740712
:10382E00F090021D740AF090024A74FFF012348375
:0E383E00E4900258123D919002F27401F022C3
:103CBA009002DBE060127B017A0079361220467BA3
:103CCA00017A0079481220467B017A007900023392
:013CDA00FCED
:0636EE007E007D007C005F
:1036F4009002BE12077E90D8557480F09002BEE00E
:10370400FCA3E0FDA3E0FEA3E0FF7810120758EF4E
:10371400540FFF90D852EFF09002BEE0FCA3E0FDFE
:10372400A3E0FEA3E0FF780812075890D851EFF009
:103734009002BEA3A3A3E0FF90D850EFF09002C282
:06374400E090D853F022D2
:102D75009002C27412F07F001236EE90029EE0902F
:102D850002C2F07F011236EE90029FE0448090026D
:102D9500C2F07F021236EE9002A0E09002C2F07FF0
:102DA500031236EE9002C27401F07F041236EEE48F
:102DB5009002C2F07F05FEFDFC1236F4E49002C2DB
:102DC500F07F06FEFDFC1236F49002C27401F07F1E
:102DD500071236EE9002C27402F07F081236EEE456
:102DE5009002C2F07F09FEFDFC1236F4E49002C2A7
:102DF500F07F0AFEFDFC1236F4E49002C2F07F0B70
:102E0500FEFDFC1236F4E49002C2F07F0DFEFDFCDF
:102E15001236F49002C27404F07F0E1236EEE4907E
:102E250002C2F07F0FFEFDFC1236F4E49002C2F000
:102E35007F20FEFDFC1236F4E49002C2F07F21FEF5
:102E4500FDFC1236F49002C27401F07F007E027D13
:062E5500007C000236F4CF
:103C70009002D8E0700D90026E740AF090021DF070
:103C8000023483E490C006F07F01FE123B6690C0D0
:053C9000067408F0229B
:103E2C0090A046E04480F054BFF090B08CE0447019
:093E3C00F090A048E04404F022DB
:103E450090A046E04480F054BFF090B08CE04477F9
:093E5500F090A048E054FBF022BB
:103ECA0090B08DE04407F090A046E054F7F0440427
:023EDA00F022D4
:0F3EDC0090B08DE04407F090A046E0440CF02237
:103E8C0090A046E04408F090B08D7407F090A048E4
:053E9C00E04410F022DB
:103EA10090A046E04408F090B08D7407F090A048CF
:053EB100E054EFF022D7
:102C8C007FDB7ED1123D6EEF9002BEF0A3E4F07FAD
:102C9C00DC7ED1123D6E9002BFE02FF09002BEE0C0
:102CAC003400F07FE77ED1123D6EEF9002C0F0A3AE
:102CBC00E4F07FE87ED1123D6E9002C1E02FF090DF
:102CCC0002C0E03400F07FDD7ED1123D6EEF900249
:102CDC00C2F0A3E4F07FDE7ED1123D6E9002C3E021
:102CEC002FF09002C2E03400F07FE97ED1123D6EED
:102CFC00EF9002C4F0A3E4F07FEA7ED1123D6E9017
:102D0C0002C5E02FF09002C4E03400F09002BEE067
:102D1C00FEA3E0FF9002A8E0B50641A3E0B5073C96
:102D2C009002C0E0FEA3E0FF9002AAE0B5062DA33E
:102D3C00E0B507289002C2E0FEA3E0FF9002B2E0EB
:102D4C00B50619A3E0B507149002C4E0FEA3E0FF9A
:102D5C009002B4E06E7003A3E06F60079002DA7427
:082D6C0001F022E49002DAF00C
:012D7400223C
:102962007F547ED1123D6EEF9002F4F0A3E4F07F2B
:10297200557ED1123D6E9002F5E02FF09002F4E008
:102982003400F0E0FEA3E0FFC39422EE940050086E
:10299200EF941EEE94005066C3EF942EEE94005016
:1029A20008EF942AEE94005055C3EF9432EE94004F
:1029B2005008EF942EEE94005044C3EF945AEE94D4
:1029C200005008EF9456EE94005033C3EF9462EE39
:1029D20094005008EF945EEE94005022C3EF94B23C
:1029E200EE94005008EF94AEEE94005011C3EF94B1
:1029F200C2EE94005050EF94BEEE94004048900214
:102A0200E2E0FEA3E0FF24FEFDEE34FFFC9002F4C0
:102A1200E0FAA3E0FBC39DEA9C400EEF2402FFE430
:102A22003EFED3EB9FEA9E400D123E2C7FC87E00F5
:102A3200123B3C123E459002F4E0FFA3E09002E21A
:102A4200CFF0A3EFF0229002F4E0FEA3E0FF4E707D
:102A5200259002E2E0FCA3E0FDEF6D7002EE6C60F7
:102A6200159002E2EEF0A3EFF0123E2C7FC87E003A
:062A7200123B3C123E4540
:012A7800223B
:101B1F00E49002BBF0A3F0A3F09002E2F0A3F090E8
:101B2F0002EFF09002D9F07FC8FE123B661200035D
:101B3F00123A9F123E45123DE190C1177401F01207
:101B4F003CBA12384C122D75E490D212F07838F658
:101B5F009002ECF09002DAF090D221748FF090D2D4
:101B6F002274FFF090D2677422F09002D8E0700BCD
:101B7F00123BD7123B00123A33800AD2AF9002F2D7
:101B8F007401123D919002D8E070031237FE90D28B
:101B9F0017E020E603021C5C9002BBE004F0E06457
:101BAF000A70E2F090D212E0700C9002DAE0700648
:101BBF009002ECE0606D90B8B0E030E5C830E6C55B
:101BCF007FC87E00123B3C12271AEF70B890D212DA
:101BDF00F0783876019002DAF09002ECF012374A82
:101BEF00123E77123BAE9002BD7401F07F0A7E0069
:101BFF00123B3CE49002E1F09002BBF0123ECA7F30
:101C0F00547ED1123D6EEF9002E2F0A3E4F07F55C7
:101C1F007ED1123D6E9002E3E02FF09002E2E034AD
:101C2F00008019122C8C12271AEF7003021B94904C
:101C3F0002ECE06003021B947838F604F0123E2C9D
:101C4F007FC87E00123B3C123E45021B94E490027B
:101C5F00BBF090D212E070087838E67003021B9444
:101C6F009002E1E004F07F017E00123B669002E1FA
:101C7F00E064C87039F090B8B0E020E51930E6168E
:101C8F0090D217E020E6279002D9E0440190D800C7
:101C9F00F0123CFC801890B8B0E030E51130E60E41
:101CAF0012271AEF7005120B928003123CDB783863
:101CBF00E67003021B94E4F69002ECE06003021B53
:101CCF0094F604F0123E2C7FC87E00123B3C123E6D
:041CDF0045021B940B
:103AD0000F123AF90F123AF90F123AF97F369002A3
:103AE000AAE0C313FEEEFD7EC2123AF99002AAE0EC
:093AF000C313A3E013FD0F7EC215
:073AF9008F828E83EDF022A5
:103D59007FB17EB8123D6E9002E6E4FCFDFE1207CB
:053D69007E7FB27EB870
:073D6E008F828E83E0FF222B
:0D3B2F007D1A7F347EA0123AF97F0A7E00D5
:103B3C00EF1FAA0670011E4A6013E4FCFDC3ED944E
:0D3B4C005EEC940150EA0DBD00010C80F00C
:013B59002249
:100EC7007D107F837ED2123AF97D217F347EA01276
:100ED7003AF97F327E00123B3C7DE77F527E9012CB
:100EE7003AF97FB17EB8123D6E9002BE123D63E4BF
:100EF700FCFDFEC004C005C006C0079002BEE0FCB2
:100F0700A3E0FDA3E0FEA3E0FF780812076BD00380
:100F1700D002D001D000EF2BFFEE3AFEED39FDEC09
:100F270038FC9002BE12077E7FB37EB8123D6EE496
:100F3700FCFDFEC004C005C006C0079002BEE0FC71
:100F4700A3E0FDA3E0FEA3E0FF780812076BD00340
:100F5700D002D001D000EF2BFFEE3AFEED39FDECC9
:100F670038FC9002BE12077E9002BEE0FCA3E0FDB3
:100F7700A3E0FEA3E0FFE47B02FAF9F812062A9049
:100F870002BE12077E7DFF7F527E90123AF97D01E5
:100F97007F347EA0123AF97FDB7ED1123D6EEF904F
:100FA70002C2F0A3E4F07FDC7ED1123D6E9002C353
:100FB700E02FF09002C2E03400F07FE7123D6EEFC1
:100FC7009002C4F0A3E4F07FE87ED1123D6E900258
:100FD700C5E02FF09002C4E03400F07FDF123D6ED1
:100FE700EF547F9002C8F0A3E4F07FE07ED1123D7A
:100FF7006E9002C9E02FF09002C8E03400F07FE164
:10100700123D6EEF1DFC7FE27ED1123D6EED2FFD8E
:10101700E43CFC9002C8E0FEA3E0FFC3ED9FFFECB9
:101027009EA3F0A3EFF09002C4E0FEA3E0FFC390FD
:1010370002C3E09FFF9002C2E09EFEC3EF9DFFEE5A
:101047009C9002C6F0A3EFF07FDD7ED1123D6EEFDC
:101057009002CCF0A3E4F07FDE7ED1123D6E9002C9
:10106700CDE02FF09002CCE03400F07FE9123D6E26
:10107700EF9002CEF0A3E4F07FEA7ED1123D6E90AE
:1010870002CFE02FF09002CEE03400F07FE6123D71
:101097006EA9077FE3123D6EEF7D00FC7FE47ED1F2
:1010A700123D6EED2FFDE43CFCC3ED999002D1F0AB
:1010B7009002CEA3E0FF9002CCA3E0C39FAE05C38E
:1010C7009E9002D0F07FDF7ED1123D6EEF5480C438
:1010D700131313540170047F0180027F00AB077F55
:1010E700E57ED1123D6EEF5480C413131354017083
:1010F700047F0180027F00AA079002BEE0FCA3E004
:10110700FDA3E0FEA3E0FF9002A412077E9002C2B7
:10111700E0FFA3E09002A8CFF0A3EFF09002C4E0B5
:10112700FFA3E09002AACFF0A3EFF09002C6E0FF82
:10113700A3E09002ACCFF0A3EFF09002C8E0FFA3CA
:10114700E09002AECFF0A3EFF09002CAE0FFA3E079
:101157009002B0CFF0A3EFF09002CCE0FFA3E090B5
:1011670002B2CFF0A3EFF09002CEE0FFA3E090022F
:10117700B4CFF0A3EFF09002D0E09002B6F0A3E96D
:10118700F09002D1E09002B8F0A3EBF0A3EAF07F71
:011197000156
:011198002234
:101EA500E4F9FBFD7F507EA0123AF97D020F123A4C
:101EB500F90D0F123AF9E4FD0F123AF97DF10F12FF
:101EC5003AF97F50123D6EEF4402FD7F50123AF908
:101ED5007FC87E00123B3C7F0C7EA0123D6EEF5406
:101EE5000260097F0C123D6EEF5401FB7F507EA00E
:101EF500123D6EEF54FDFD7F50123AF97FEB7ED116
:101F0500123D6EEF5406F96003021F9B9002EBE051
:101F1500FC7027EB64017D047F507EA0700D123AA2
:101F2500F9E4FD7F55123AF9022040123AF9E4FD31
:101F35007F55123AF97D03022040EC64027026EBCE
:101F45006401700CFD7F507EA0123AF97DF0800B84
:101F5500E4FD7F507EA0123AF97DE07F55123AF9F3
:101F6500E4FD0220409002EBE0640160030220459D
:101F7500EB6401700CFD7F507EA0123AF97DFC8068
:101F85000BE4FD7F507EA0123AF97DEC7F55123AA5
:101F9500F9E4FD022040E9640270509002EBE0FB99
:101FA5007A007014FD7F507EA0123AF97D037F55AB
:101FB500123AF97D3C022040EB64024A7013FD7F22
:101FC500507EA0123AF97D037F55123AF9E4FD805F
:101FD5006A9002EBE0640170677D047F507EA01279
:101FE5003AF9E4FD7F55123AF98050E964047050DE
:101FF5009002EBE0FB7A007011FD7F507EA0123A53
:10200500F97F55123AF97D3C8031EB64024A701232
:102015007D047F507EA0123AF9E4FD7F55123AF90E
:1020250080199002EBE064017016FD7F507EA012CE
:102035003AF97D0C7F55123AF9E4FD7F57123AF9CA
:012045002278
:103930009002B9E06401601C7F057ED2123D6EEFFB
:103940004404FD7F05123AF9123D6EEF54F7FD7FF6
:1039500005123AF99002BAE06401601C7F057ED23C
:10396000123D6EEF4410FD7F05123AF9123D6EEFE5
:0939700054DFFD7F05123AF92233
:1039BC007D437F357EA0123AF97D210F123AF97DB5
:1039CC00040F123AF97D320F123AF97D100F123AA8
:1039DC00F97D430F123AF97D210F123AF97D040F4C
:0F39EC00123AF97D320F123AF97D100F023AF9B3
:102F2E009002E0E0FB7A00640170047DFF8014EBF8
:102F3E0064024A70159002E4E0640170047DF5802D
:102F4E00027DDD7F437EA0123AF97D347F557EB03F
:102F5E00123AF97D9F7F5D123AF97F5F123AF97D41
:102F6E008F7F61123AF97D9F7F63123AF97F651266
:102F7E003AF97D347F77123AF97D9F7F7F123AF9C5
:102F8E007F81123AF97D8F7F83123AF97D9F7F857B
:102F9E00123AF97F87123AF99002E4E0704C7D34D0
:102FAE007F44123AF97D9F7F4C123AF97F4E123AC6
:102FBE00F97D8F7F50123AF97D9F7F52123AF97F39
:102FCE0054123AF97D347F66123AF97D9F7F6E1264
:102FDE003AF97F70123AF97D8F7F72123AF97D9F1E
:0B2FEE007F74123AF97F76123AF92244
:10143900E49002BEF0A3F0A3F0A3F07BE87A03F9ED
:10144900F89002A4E0FCA3E0FDA3E0FEA3E0FF12F4
:1014590006B59002E5E014601104702E7C007D034E
:101469001205AD9002A1E0FD800EEF25E0FFEE33FD
:10147900FE9002A1E0FD7C001205BF9002E0E0FDB4
:101489007C001205BF9002BEEFF09002BEE0240579
:10149900F0E0C394327480948050037432F07D3844
:1014A9007F3A7EB0123AF97D010F123AF99002BEE5
:1014B900E0FFC394BB74809480501BC3EF945074B5
:1014C90080948040117D107F3E7EB0123AF99002DF
:1014D900BF7401F080799002BEE0FFC3945074801C
:1014E9009480501BC3EF9428748094804011E4FDCC
:1014F9007F3E7EB0123AF99002BF7402F08050909C
:1015090002BEE0FFC3942874809480501BC3EF94FB
:10151900147480948040117D207F3E7EB0123AF988
:101529009002BF7404F080279002BEE0FFC39414B8
:10153900748094805019C3EF940A74809480400F8A
:101549007D307F3E7EB0123AF99002BF7408F07D7B
:10155900107F3F7EB0123AF90F123AF99002BFE0BC
:10156900FF9002BEE08FF0A4AEF07803C333CE3310
:10157900CED8F9FF7C007D1B1205BFAD077F417EE8
:10158900B0123AF99002C1E004F07DDF7F0F7E903E
:10159900123AF97F447EB0123D6EEF54BFFD7F448D
:1015A900123AF97F017E00123B3C7DFF7F0F7E904E
:1015B900123AF97F447EB0123D6EEF4440FD7F44FC
:1015C900123AF97F647E00123B3CE4FD7F1E7EB82F
:1015D900123B357D017F1E7EB8123B357D037F1E90
:1015E9007EB8123AF97F647E00123B3C9002C1E05A
:1015F900C3940374809480500B7FB07EB8123D6E03
:10160900EF30E480123B2F7DE77F527E90123AF94A
:10161900123D59E4FCFDFEC004C005C006C0079098
:1016290002E6E0FCA3E0FDA3E0FEA3E0FF780812D8
:10163900076BD003D002D001D000EF2BFFEE3AFEAA
:10164900ED39FDEC38FC9002E612077E7FB37EB8D7
:10165900123D6EE4FCFDFEC004C005C006C0079043
:1016690002E6E0FCA3E0FDA3E0FEA3E0FF78081298
:10167900076BD003D002D001D000EF2BFFEE3AFE6A
:10168900ED39FDEC38FC9002E612077E7DFF7F52B2
:101699007E90123AF97D017F347EA0123AF9E47FF7
:1016A90004FE1DFC9002E6E0F8A3E0F9A3E0FAA32A
:0A16B900E0FB12062A9002C0EFF0D9
:0116C3002204
:1025E800E47BE87A03F9F89002E6E0FCA3E0FDA3B7
:1025F800E0FEA3E0FF1206B5AA07EF75F00A84FE15
:10260800FCEF75F012842402FBEF75F00684049049
:1026180002BEF0EE2405A3F0EA75F00C8404A3F0E2
:10262800EA75F01984F9EA75F00584FA7DBE7F0A27
:102638007E90123AF90D123AF97F447EB0123D6E3F
:10264800EF4480FD7F44123AF97DC07EA0123AF92A
:102658007D807F49123AF9E4FDFF7EC2123AF90FF4
:10266800123AF97F56123AF97D0F7F20123AF97D16
:10267800117F25123AF97F2C123AF99002C0E0FD39
:102688007F22123AF9AD010F123AF9AD020F123A50
:10269800F9AD037F2F123AF9AD040F123AF97DAA6A
:1026A8000F123AF9AD037F52123AF9AD040F123AFC
:1026B800F97DAA0F123AF99002E4E07028AD047F80
:1026C80026123AF9AD030F123AF97DAA7F2E123A73
:1026D800F9AD037F32123AF9AD040F123AF97DAA27
:1026E8007F51123AF99002BFE0FD7F287EC2123A6C
:1026F800F9EC2BFF9002BEE02FFD7F2A123AF97DFC
:10270800107F1B123AF97D507F1D123AF97F2D0276
:022718003AF98C
:101199009002AAE0FD7F0C7EC2123AF99002ABE000
:1011A900FD0F123AF99002B8E0FF9002B7E02FFD67
:1011B9007F35123AF99002B4E0FD7F06123AF990B0
:1011C90002B5E0FD0F123AF97D557F0F123AF990F9
:1011D90002E0E0640160030212C89002F0E024F822
:1011E9006071240860030214389002AAE0FD7F3878
:1011F9007EC2123AF99002ABE0FD0F123AF9900261
:10120900B7E0FD7F04123AF99002B8E0FD0F123AF7
:10121900F99002B6E0FD7F08123AF97D0A0F123AF9
:10122900F90F123AF90F123AF99002E5E0FB7A0048
:10123900700B7D267F17123AF97D3E807DEB6401A4
:101249004A60030214387D247F177EC2123AF97D61
:101259001C80679002AAE0FD7F387EC2123AF9909D
:1012690002ABE0FD0F123AF99002B8E0FF9002B725
:10127900E02F14FD7F04123AF97D010F123AF91D8E
:101289007F08123AF90D0F123AF90F123AF90F12B3
:101299003AF99002E5E0FB7A00700B7D267F171280
:1012A9003AF97D248014EB64014A60030214387D05
:1012B900247F177EC2123AF97D1E7F1202143590DF
:1012C90002AAE0FEA3E07802CEC313CE13D8F9EE4A
:1012D900FD7F107EC2123AF99002AAE0FEA3E078DF
:1012E90002CEC313CE13D8F9FD7F117EC2123AF98B
:1012F9009002F0E024F870030213A02408600302AE
:1013090014387F38123ADE9002B7E0FD7F04123AB2
:10131900F99002B8E0FD0F123AF99002B6E0FD7FAC
:1013290008123AF97D0A123AD09002B7E0FD7F57C8
:10133900123AF99002B8E0FD0F123AF99002B6E0BC
:10134900FD0F123AF97D0A0F123AF90F123AF90F05
:10135900123AF99002E5E0FB7A0070187DA67F1732
:10136900123AF97F4C123AF97D3E7F12123AF97F0F
:101379005D021435EB64014A60030214387DA47FD1
:10138900177EC2123AF97F4C123AF97D1C7F12126C
:101399003AF97F5D0214359002AAE0C313FEEEFD0F
:1013A9007F38123AE79002B8E0FF9002B7E02F14B5
:1013B900FD7F04123AF97D010F123AF91D7F0812D7
:1013C9003AF90D123AD09002B8E0FF9002B7E02F37
:1013D90014FD7F57123AF97D010F123AF91D0F12C8
:1013E9003AF90D0F123AF90F123AF90F123AF99028
:1013F90002E5E0FB7A0070177DA67F17123AF97FA4
:101409004C123AF97D247F12123AF97F5D801DEB67
:1014190064014A701A7DA47F177EC2123AF97F4C83
:10142900123AF97D1E7F12123AF97F5D123AF922BA
:1016C4009002BE12078A000000009002D012078A1E
:1016D40000000000E49002D4F0A3F0FBFA123B2FC8
:1016E400123D59E4FCFDFEC004C005C006C00790CD
:1016F40002E6E0FCA3E0FDA3E0FEA3E0FF7808120D
:10170400076BA804A905AA06AB07D007D006D00525
:10171400D004EB2FFFEA3EFEE93DFDE83CFC9002DD
:10172400E612077E7FB37EB8123D6EE4FCFDFEC078
:1017340004C005C006C0079002E6E0FCA3E0FDA3D8
:10174400E0FEA3E0FF780812076BA804A905AA0627
:10175400AB07D007D006D005D004EB2FFFEA3EFE3E
:10176400E93DFDE83CFC9002E612077E7D017F34F2
:101774007EA0123AF9E47BE87A03F9F89002A4E037
:10178400FCA3E0FDA3E0FEA3E0FF1206B5C00790B2
:1017940002E0E0FBE4FAF9F8D0071206B59002D4AF
:1017A400EEF0A3EFF0E47BE87A03F9F89002E6E0C8
:1017B400FCA3E0FDA3E0FEA3E0FF1206B5AA06AB7E
:1017C400079002E0E0FD7C009002AEE0FEA3E0FFA3
:1017D4001205BF9002C2EEF0A3EFF09002E0E0FD2C
:1017E4007C009002B0E0FEA3E0FF1205BF9002C4AB
:1017F400EEF0A3EFF09002E0E0FD7C009002AAE09E
:10180400FEA3E0FF1205BF9002C6EEF0A3EFF09036
:1018140002C4E0FEA3E0FF9002C3E02FFF9002C2E7
:10182400E03EFE9002C7E02FFF9002C6E03EFEE4D9
:10183400FCFD9002C812077EEB2401FFE43AFEE4AB
:10184400FCFD9002C8E0F8A3E0F9A3E0FAA3E0FBF2
:1018540012062A9002CC12077E9002D5E024FFFFE4
:101864009002D4E034FFAB07FAE4F9F89002CCE03C
:10187400FCA3E0FDA3E0FEA3E0FF1206B59002D0B6
:1018840012077E9002E5E0640170169002C7E0251D
:10189400E0FF9002C6E033FE9002A1E0FD7C0080F0
:1018A4001A9002E5E0703C9002C6E0FEA3E0FF7CE3
:1018B400007D031205AD9002A1E0FD1205BFAB0748
:1018C400AA069002D0E0FCA3E0FDA3E0FEA3E0C3DF
:1018D4009BFFEE9AFEED9400FDEC9400FC9002BE9A
:1018E40012077E9002BEE0FCA3E0FDA3E0FEA3E0AD
:0718F400FF9002DC02077EF9
:10249E00E4FD7F1C7EC2123AF99002A1E014700393
:1024AE0002254D1460681460341460030225809078
:1024BE0002F0E0FF9002A2E04FFD7F017EC2123AD1
:1024CE00F99002F0E0FF9002A2E04FFD7F56123A23
:1024DE00F97D017F02123AF97D5502257C9002A208
:1024EE00E04430FF9002F0E04FFD7F017EC2123AD1
:1024FE00F99002A2E04430FF9002F0E04FFD7F56CB
:10250E00123AF97D017F02123AF97D9080609002B5
:10251E00A2E04420FF9002F0E04FFD7F017EC21248
:10252E003AF99002A2E04420FF9002F0E04FFD7FC6
:10253E0056123AF97D027F02123AF97D58802F9099
:10254E0002A2E04410FF9002F0E04FFD7F017EC238
:10255E00123AF99002A2E04410FF9002F0E04FFD13
:10256E007F56123AF97D037F02123AF9E4FD0F12FB
:10257E003AF97F147E00123B3C9002A3E0FD7F00EF
:10258E007EC2123AF99002F0E0701B7F14123D6E7B
:10259E00EF4480FD7F14123AF97F00123D6EEF4436
:1025AE0080FD7F008030E4FB7A01F9F89002DCE0D8
:1025BE00FCA3E0FDA3E0FEA3E0FF1206B5AD077F8E
:1025CE00027EC2123AF99002DCE0FCA3A3A3E0FF64
:0A25DE00AD077F037EC2123AF92216
:103BAE00120EC71239BC122F2E1214391225E8909C
:103BBE0002F0E070051232D380031216C4121EA555
:093BCE0012393012119902249EF3
:1028480005010005110005100005290015360015C1
:102858003A0058000901FF000A0B0B28FF0010205E
:10286800110012621362186C190F1A001B002080E5
:10287800210724B0250426802707282029002A209C
:102888002B002C142D002E142F003004310032049C
:102898003300340C350036143700383439003A1315
:1028A8003B00FF000D01FF000900FF285AFF285CCC
:1028B800FF285EFF2860FF2862FF2864FF2866FF64
:1028C8002868FF286AFF286CFF286EFF2870FF28F9
:1028D80072FF2874FF2876FF2878FF287AFF287C63
:1028E800FF287EFF2880FF2882FF2884FF2886FF94
:1028F8002888FF288AFF288CFF288EFF2890FF2829
:1029080092FF2894FF2896FF2898FF289AFF289C72
:10291800FF289EFF28A0FF28A2FF28A4FF28A6FFC3
:1029280028A8FF28AAFF28ACFF28AEFF28B002027B
:10293800020202020202020202020202020202026F
:10294800020202020202020202020202020202025F
:0A2958000202020202020202020261
:072B8F00E493FF7BFF7D02D0
:102B96009002C0EFF0A3EDF0A3EBF0A3EAF0A3E9F7
:012BA600F03E
:102BA700E4A3F07D407F1C7EC2123AF99002C1E097
:102BB7006402704F7D0C7F187EC2123AF97D047F44
:102BC700197EC2123AF99002C0E0FD7F347EC2122C
:102BD7003AF99002C2E0FBA3E0FAA3E0F912053349
:102BE700FD7F347EC2123AF99002C2E0FBA3E0FAFD
:102BF700A3E0F990000112054CFD7F347EC2123A22
:102C0700F980727D0E7F187EC2123AF99002C1E0F8
:102C17002406FD7F197EC2123AF99002C0E0FD7FBB
:102C2700347EC2123AF99002C1E0FD7F347EC212AF
:102C37003AF9E4FD7F347EC2123AF9E49002C5F016
:102C47009002C1E0FF9002C5E0C39F50289002C2E6
:102C5700E0FBA3E0FAA3E0F9120533FD7F347EC25F
:102C6700123AF99002C3E475F0011206149002C5F6
:102C7700E004F080CB7F017E00123B3CE4FD7F182F
:052C87007EC2023AF9D3
:1032D300E49002BEF0A3F0F09002BFE0FFC3942C91
:1032E300748094805065EF902936939002BEF06409
:1032F300027023A3E075F003A424B2F582E434281A
:10330300F583E493FB740193FA740293F99002BE7C
:10331300E0FD7F15802A9002BEE0FDD39402748005
:103323009480401FA3E075F003A424B2F582E43433
:1033330028F583E493FB740193FA740293F97F29CC
:10334300122B969002BFE004F0808D90284B7A28D0
:10335300794C122B8F7F967E00123B3C9028517A3A
:0D336300287952122B8F7FC87E00023B3C60
:102E5B000A206C616E65636E745858203D202562A4
:102E6B00640A0000010000000000000001000100E6
:102E7B00000001000100020000000200010003003D
:102E8B0000000300020007000000070002000B0017
:102E9B0000000B0002000F0000000F0004001F00D9
:102EAB0000001FFFFF0000000000000000000000FA
:102EBB000000000000000000000000000000000007
:102ECB00000000FFFF0000000000000000000000F9
:102EDB0000000000000000000000000000000000E7
:102EEB00000000FFFF0000000000000000000000D9
:102EFB0000000000000000000000000000000000C7
:102F0B00000000FFFF0000000000000000000000B8
:102F1B0000000000000000000000000000000000A6
:032F2B00000000A3
:101A39006064019400000000000000000000000044
:101A4900000000000000000000000000000000008D
:101A5900000000000000000000000000000000007D
:101A6900000000000000000000000000000000006D
:101A7900000000000000000000000000000000005D
:101A8900000000000000000000000000000000004D
:0D1A9900000000000000000042020584086B
:0B3EF70090D850EFF090D853EDF0226F
:103D3C0090D8557480F0E490D852F090D85104F09B
:0C3D4C00EF90D850F090D854E0540FFFD6
:013D58002248
:0C3B5A00F090D80374F0F0E4F07F64FEFB
:103B6600EF1FAA0670011E4A6013E4FCFDC3ED9424
:0D3B760045EC940150EA0DBD00010C80F0FB
:013B8300221F
:053F1B0090D012E0FF50
:013F2000227E
:053F210090D854E0FF00
:013F26002278
:103CDB0090900374EFF090900D74E0F090900F744F
:103CEB00BFF090900D74FFF090900FF0909003F058
:013CFB0022A6
:103C2500E4FF7849E6FEEFC39E50157839E62F2468
:103C350000F582E43400F583E090D011F00F80E2C6
:053C45007839EE26F6BF
:013C4A002257
:103C9500E4FF7849E6FEEFC39E50157839E62F24F8
:103CA50000F582E43400F583E090D011F00F80E256
:043CB500E47839F680
:013CB90022E8
:0C3EEB0090D0117420F0E490D013F0226D
:063F2700E490D011F0222D
:103E5E00E4FEEEC39F500C74242EF8E690D011F0C1
:083E6E000E80EFE490D013F088
:013E76002229
:06356500E6540F793AF76D
:10356B00783AE6FF6401703B784DE66F6035900268
:10357B00D9E0441190D800F0E4FD7F03123EF70F21
:10358B00123EF70F123EF70F123EF790D819740147
:10359B00F090D81FF0783AE6784DF6123CDB9002AB
:1035AB00D8E022783AE6FF64026004EFB4030E78A9
:0E35BB003AE6FF784D666005A607123CDB225B
:102FF90074242FF8E6540F7837F664016007783A9D
:10300900E6640160147837E6FF6407600F783AE6F2
:10301900FE64026004EEB40303023CDBEF64076064
:10302900030230BF783AE6FF64026008EF64036088
:10303900030230BF90D2127401F090D214F07823B9
:10304900E6701A760190B83A7440F090B83B745023
:10305900F090B83A7480F090B83B7452F0123CDBAF
:1030690090DBC6E090D85AF090DBC7E090D85BF0CF
:1030790090DBC9E090D85CF090DBCAE090D85DF0B5
:1030890090DBCBE090D85EF090DBCDE090D85FF09C
:103099009002D9E0440190D800F090900574EFF0C7
:1030A90074FFF090900774F7F090900D74DFF0744E
:0730B900FFF0909007F022E8
:053178009002D7EFF00A
:10317D00E4FE90D8557480F0E490D852F090D85178
:10318D00F090D850F07844E690D852F008E690D8F8
:10319D0051F008E690D850F09002D7E0FDEEC39DB7
:1031AD005012123F2174242EF8A60790D850E00437
:1031BD00F00E80E47844E6FC701308E6B4020E08C5
:1031CD00E6700AEDD3940240567F028010EC701029
:1031DD007845E6B4020A08E6B40205E4FF022FF9C9
:1031ED007845E6FF64226025EFB43002801F7844F5
:1031FD00E6B4060608E6700280137844E6B40607C6
:10320D0008E6B4920280067844E6B40F129002D715
:0F321D00E0FF7E007D007B007A0079241207BB62
:01322C00227F
:0221DB00AE074D
:1021DD00E4FF9002D7F090D8557480F07844E690E3
:1021ED00D852F008E690D851F008E690D850F0EFAC
:1021FD00C39E5012744E2FF8E690D853F090D850DD
:10220D00E004F00F80E97844E6FC704408E66401D0
:10221D00703E08E6703A784EE6783BF678357601F2
:10222D00E490D212F07838F67847F6EED394014068
:10223D000B784FE6FF783CF6540F08F6EED3940278
:10224D00500302234A7850E6540F793AF702356B62
:10225D00EC703A7845E66401703308E66401702D40
:10226D00784EE6FF783CF6540F08F6EED394014015
:10227D0005784F123565EEC39403500302234A7857
:10228D0050E654036402600302234A80467844E614
:10229D00702808E66401702208E66402701C784E0E
:1022AD00123565EEC39402500302234A784FE6546B
:1022BD00036402600302234A80197844E6FF701C10
:1022CD0008E6B4011708E6B40312784EE654036429
:1022DD0002706A90D819F090D81FF022EF703E78F6
:1022ED0045E66401703708E664077031782376019E
:1022FD00784EE690B83A30E402800C7440F090B815
:10230D003B7450F090B83A7480F090B83B7452F032
:10231D00EED394014027784FE6702280147844E67E
:10232D00701B08E6B4011608E6B40811784EE67085
:0D233D000C90D8507408F090D8537401F043
:01234A002270
:073F0D0090B02E7420F02299
:1037A60090B02C7471F090B8167450F0E490B0217B
:1037B600F090B02274C1F090B0287419F090900F78
:1037C600747FF074FFF07F0F7E00123B6690B81492
:1037D6007440F07F0F7E00123B6674C0F07F0F7E50
:1037E60000123B6674E0F07F0A7E00123B6674E4CA
:0837F600F090B82174E0F0220C
:103A690090B83A7480F090B83B7452F0E490B01F6B
:103A7900F090B020F090900D74E1F090900374FEF6
:103A8900F0741FF090900F74BFF074FFF090900DD8
:063A9900F0909003F02202
:1039FB0090A03274E4F0E490D000F090D0027410F8
:103A0B00F090D008740BF090D0097466F090D00A47
:103A1B00740EF090D00B7471F0E490A030F0909095
:083A2B001074EFF074FFF022AB
:103B840090DAFC740FF090DAA374E4F090DAA47481
:103B940080F090B0307440F09002D9E0441190D895
:0A3BA40000F0E47843F67823F622DF
:103D1D0090B03A74F8F090B092741FF090B01474A3
:0F3D2D0038F090B0187410F090B01A740AF022A9
:103D750090900774F7F074FFF090D2697405F09095
:0C3D8500D2027454F090D2677420F02237
:10374A00E490B000F090B08CE04407F090B08E7432
:10375A0007F090B08F7477F090D1107420F090D168
:10376A00147419F090D11574C2F07D7F7F067E9093
:10377A00123AF97F017E00123B3C7DFF7F067E9064
:10378A00123AF97DEE7F057E90123AF97F017E00AA
:0C379A00123B3C7DFE7F057E90023AF958
:10271A007F01123D3C9002C6EF123B5A7F117EDBCD
:10272A00123D6EEF547F9002BEF0A3E4F07F107E5C
:10273A00DB123D6E9002BFE02FF09002BEE0340043
:10274A00F07F137EDB123D6EEF547F9002C0F0A340
:10275A00E4F07F127EDB123D6E9002C1E02FF09012
:10276A0002C0E03400F07F157EDB123D6EEF547F2D
:10277A009002C2F0A3E4F07F147EDB123D6E900259
:10278A00C3E02FF09002C2E03400F07F177EDB1224
:10279A003D6EEF547F9002C4F0A3E4F07F167EDB17
:1027AA00123D6E9002C5E02FF09002C4E03400F0B2
:1027BA009002C6E024FE601D24FE603D2403707B67
:1027CA00C39002BFE0940A9002BEE0940040037FE7
:1027DA0001227F0022C39002BFE0940A9002BEE069
:1027EA009400500FC39002C1E0940A9002C0E09492
:1027FA000040037F01227F0022C39002BFE0940AB7
:10280A009002BEE09400502DC39002C1E0940A9059
:10281A0002C0E09400501EC39002C3E0940A9002E2
:10282A00C2E09400500FC39002C5E0940A9002C41B
:0D283A00E0940040037F01227F00227F0117
:01284700226E
:10001E0074FF900100F0A3F0A3F0A3F0A3F0A3F0FF
:10002E00A3F0A3F078087C017D01FB7A2E79AE7ED9
:10003E00007F2012050D78287C017D017BFF7A2E32
:10004E0079CE7E007F2012050D78487C017D017BE4
:10005E00FF7A2E79EE7E007F2012050D78687C01E6
:10006E007D017BFF7A2F790E7E007F2012050DE435
:10007E00900188F07F01123D3CEF540F900191F0FA
:10008E0090D214F09002D9E0440190D800F07BFF9A
:10009E007A2E795B90D214E0900273F0120898E4F5
:1000AE0090018DF0A3F0A3F0A3F0900188F09001E1
:1000BE0088E0FF25E025E0246EF582E4342EF583FA
:1000CE00E474019375F011A4FE90D85AF0EF25E078
:1000DE0025E02470F582E4342EF583740193FF90AD
:1000EE00D85BF090D85CF090D85DEEF090D85EEFD3
:1000FE00F090D85F123B5A900191E0C39401407C7E
:10010E007F117EDB123D6EEF547FFE900188E0255D
:10011E00E02408F582E43401F583EEF0A3E4F07FE9
:10012E00107EDB123D6E900188E0FD25E02408F57F
:10013E0082E43401F583E48FF0120614ED25E024F9
:10014E0008F582E43401F583E0FEA3E0FF900100A0
:10015E00E0FCA3E0FDD3EF9DEE9C5020900188E0E3
:10016E00FD900100EEF0A3EFF0900189EDF090010B
:10017E008DE07008900188E090018DF0900191E083
:10018E00C39402407C7F137EDB123D6EEF547FFEE4
:10019E00900188E025E02428F582E43401F583EE11
:1001AE00F0A3E4F07F127EDB123D6E900188E0FD3D
:1001BE0025E02428F582E43401F583E48FF012065D
:1001CE0014ED25E02428F582E43401F583E0FEA346
:1001DE00E0FF900102E0FCA3E0FDD3EF9DEE9C500A
:1001EE0020900188E0FD900102EEF0A3EFF0900167
:1001FE008AEDF090018EE07008900188E090018EFB
:10020E00F0900191E0C3940450030203137F157E16
:10021E00DB123D6EEF547FFE900188E025E024480E
:10022E00F582E43401F583EEF0A3E4F07F147EDB77
:10023E00123D6E900188E0FD25E02448F582E434FD
:10024E0001F583E48FF0120614ED25E02448F582C3
:10025E00E43401F583E0FEA3E0FF900104E0FCA38B
:10026E00E0FDD3EF9DEE9C5020900188E0FD9001C3
:10027E0004EEF0A3EFF090018BEDF090018FE070A3
:10028E0008900188E090018FF07F177EDB123D6EA3
:10029E00EF547FFE900188E025E02468F582E43477
:1002AE0001F583EEF0A3E4F07F167EDB123D6E9037
:1002BE000188E0FD25E02468F582E43401F583E44D
:1002CE008FF0120614ED25E02468F582E43401F572
:1002DE0083E0FEA3E0FF900106E0FCA3E0FDD3EF78
:1002EE009DEE9C5020900188E0FD900106EEF0A35B
:1002FE00EFF090018CEDF0900190E0700890018885
:10030E00E0900190F0900188E004F0E0C39410506A
:10031E00030200BC90018DE0FDFF900189E0C39FB8
:10032E00FFE49400C313EF13FFED2FF090018EE066
:10033E00FDFF90018AE0C39FFFE49400C313EF1307
:10034E00FFED2FF090018FE0FDFF90018BE0C39F3A
:10035E00FFE49400C313EF13FFED2FF0900190E034
:10036E00FDFF90018CE0C39FFFE49400C313EF13D5
:10037E00FFED2FF090018AE0F925E025E0246EF5DF
:10038E0082E4342EF583740193C454F0FE900189F7
:10039E00E0FD25E025E0246EF582E4342EF583742D
:1003AE0001932E90D85AF0ED25E025E02470F582C9
:1003BE00E4342EF58374019390D85BF0E925E025A3
:1003CE00E02470F582E4342EF58374019390D85CAA
:1003DE00F090018CE0F925E025E0246EF582E434FE
:1003EE002EF583740193C454F0FE90018BE0FD252D
:1003FE00E025E0246EF582E4342EF5837401932E0D
:10040E0090D85DF0ED25E025E02470F582E4342EE1
:10041E00F58374019390D85EF0E925E025E0247011
:0E042E00F582E4342EF58374019390D85FF0CC
:01043C00229D
:103CFC0090900774F7F090900D74DFF07F057E00C4
:103D0C00123B6674FFF0909007F07FF47E01023B4B
:013D1C006640
:100B92009002CF74F0F0E4A3F07F01123D3CEF54D9
:100BA2000F9002CEF090D1CCE0FFE4FCFDFE781075
:100BB20012076B9002BE12077E90D1CDE0FFE4FCDB
:100BC200FDFE9002BEE0F8A3E0F9A3E0FAA3E02F55
:100BD200FFEE3AFEED39FDEC38FC780812076B9017
:100BE20002BE12077E90D1CEE0FB9002CFE0FFE47E
:100BF200FCFDFEEB5FFF9002BEE0F8A3E0F9A3E08C
:100C0200FAA3E02FFFEE3AFEED39FDEC38FC90023C
:100C1200BE12077E90D1CFE0FFE4FCFDFE781012F9
:100C2200076B9002C212077E90D1D0E0FFE4FCFD78
:100C3200FE9002C2E0F8A3E0F9A3E0FAA3E02FFFDE
:100C4200EE3AFEED39FDEC38FC780812076B9002A3
:100C5200C212077E90D1D1E0FB9002CFE0FFE4FC0C
:100C6200FDFEEB5FFF9002C2E0F8A3E0F9A3E0FA19
:100C7200A3E02FFFEE3AFEED39FDEC38FC9002C204
:100C820012077E90D1D2E0FFE4FCFDFE781012073D
:100C92006B9002C612077E90D1D3E0FFE4FCFDFE0A
:100CA2009002C6E0F8A3E0F9A3E0FAA3E02FFFEE7A
:100CB2003AFEED39FDEC38FC780812076B9002C65B
:100CC20012077E90D1D4E0FB9002CFE0FFE4FCFD5E
:100CD200FEEB5FFF9002C6E0F8A3E0F9A3E0FAA3FF
:100CE200E02FFFEE3AFEED39FDEC38FC9002C61221
:100CF200077E90D1D5E0FFE4FCFDFE781012076B71
:100D02009002CA12077E90D1D6E0FFE4FCFDFE906D
:100D120002CAE0F8A3E0F9A3E0FAA3E02FFFEE3A5B
:100D2200FEED39FDEC38FC780812076B9002CA120E
:100D3200077E90D1D7E0FB9002CFE0FFE4FCFDFEFE
:100D4200EB5FFF9002CAE0F8A3E0F9A3E0FAA3E0A8
:100D52002FFFEE3AFEED39FDEC38FC9002CA120785
:100D62007E9002CEE0B402289002C2E0FCA3E0FD35
:100D7200A3E0FEA3E0FF9002BEE0F8A3E0F9A3E047
:100D8200FAA3E0FBC31207477003020E66020E606D
:100D92009002CEE064046003020E669002C2E0FCA0
:100DA200A3E0FDA3E0FEA3E0FF9002BEE0F8A3E013
:100DB200F9A3E0FAA3E0FBC31207476003020E6047
:100DC2009002C6E0FCA3E0FDA3E0FEA3E0FF9002D8
:100DD200BEE0F8A3A3A3E0C31207476003020E60BC
:100DE2009002CAE0FCA3E0FDA3E0FEA3E0FF9002B4
:100DF200BEE0F8A3A3A3E0C312074770619002C646
:100E0200E0FCA3E0FDA3E0FEA3E0FF9002C2E0F855
:100E1200A3E0F9A3E0FAA3E0FBC3120747703F90F7
:100E220002CAE0FCA3E0FDA3E0FEA3E0FF9002C241
:100E3200E0F8A3A3A3E0C312074770229002CAE01E
:100E4200FCA3E0FDA3E0FEA3E0FF9002C6E0F8A34E
:100E5200E0F9A3E0FAA3E0FBC312074760069002A1
:100E6200D07401F09002D0E0603B9002D9E04401DE
:100E720090D800F090905174F0F07F017E00123B08
:100E82006674FFF0909007747FF07F017E00123B42
:100E92006674FFF0909003740FF07F017E00123BA6
:100EA2006674FF8017E490D219F090900774F7F0FF
:100EB20090900D74DFF074FFF0909007F07FF47E55
:040EC20001123B6678
:010EC6002209
:103EB60090C0C0E030E7079002D97402F022E49087
:043EC60002D9F0220B
:10384C00123F0D1237A6123A69123D1D123D751228
:10385C0039FB123B849002D9E0441190D800F090CF
:10386C002E8A740193FFC454F02FFF90D85AF09015
:10387C002E8C740193FE90D85BF090D85CF090D8AD
:0D388C005DEFF090D85EEEF090D85FF02276
:101AA600011000011300011100010F000112004195
:0B1AB60002F2004102F1004102F300C7
:102A7900780FE630E71990C19EE0540F600B90C1C2
:102A8900AF74C1F0123DFA80061235C9123E1378AF
:102A99000FE6FF30E62590C19CE05407640190B031
:102AA9000B600574E5F0801374C5F090C196740B42
:102AB900F0E4900254F090024C04F0EF20E5047F1A
:102AC9000180027F0090024CE05F605A90C1A3E050
:102AD900FF900254E0FE2423F582E43402F583EFEB
:102AE900F0EEB4010E900224E054701313543F9099
:102AF9000252F0900252E02401FFE433FE900254A6
:102B0900E0B50711E4B5060D90C1967403F0E490A1
:102B1900024CF08011900254E004F090C1B6E0FF3D
:102B2900780FF630E5A6780FE6FD30E43390C1B6AC
:102B39007410F0900223E0FE540F900259F09002B5
:102B490052E0700C900259E0B40105900257800DD3
:102B5900E4900258F0EE644F60069002457401F06B
:102B6900ED30E22190B00B74C5F0900245E06005AC
:102B7900E4F0023690900258E0600A90025774011E
:062B8900F0900251F02261
:10234B00E49002D6F0783676FF7849F67FFF90D08E
:10235B000FE0541F7848F6123F1BEF54F07836F617
:10236B00EF540F7844F6123F1B7845A607123F1B1C
:10237B007846A6077848E6C394044011123F1B78B1
:10238B0049A60706E6D39410400302249D7848E63D
:10239B00D394044020E49002D6F09002D6E0C378A8
:1023AB0049965011123F1B9002D6E0244EF8A60717
:1023BB00E004F080E57836E6700302249524F07093
:1023CB000302246224F0700302249524E060392474
:1023DB00F0604F24F0700302249524D06011241078
:1023EB00600302249D7849E6FF1221DB02249078DA
:1023FB0049E6FFC39411400302249D123178123F2A
:10240B00277849E6FF023E5E7846E6B450127849DB
:10241B00E6B4010C7848E6B40506784EE67839F652
:10242B0080637846E6B4500E7848E6B40408123F51
:10243B0027123C2580577846E6B450087848E6B416
:10244B00030280067846E6B43C05123F27803E9097
:10245B00D0117410F080367846E6B4500E7848E60A
:10246B00B40408123F27123C95800F7846E6B4500F
:10247B000F7848E6B40309123F27E47839F6800356
:10248B00123F278008123F278003123F27E490D08A
:02249B0013F03C
:01249D00221C
:03000B000239793E
:10397900C0E0C0F0C083C082C0D075D000C000C014
:1039890001C002C003C004C005C006C007123EEB57
:10399900D28C758CFD758AA8D007D006D005D004C5
:1039A900D003D002D001D000D0D0D082D083D0F0C3
:0339B900D0E03229
:03001B000238990F
:10389900C0E0C083C082C0D0C28E758DB1758BE087
:1038A9009002EEE004F070069002EDE004F0D28E92
:1038B9009002EDE0B4011DA3E0B4901890B8B0E017
:1038C90030E40B9002EDE4F0A3F0C28E800690B0D4
:0D38D9000B74D5F0D0D0D082D083D0E03277
:103DAC0090D220E030E01390D21CE04401F054FE9D
:0B3DBC00F078387601E490D219F02274
:0300130002322D89
:10322D00C0E0C0F0C083C082C0D075D000C000C067
:10323D0001C002C003C004C005C006C00790025102
:10324D00E4F090A015E030E21F90A0A07404F0E42B
:10325D00F090C1B6E0780FF6FF74EFF0EF642060E8
:10326D0007C2AF122A79D2AF9002F2E0602990A086
:10327D0016E030E72290A0A174FFF0747FF0900269
:10328D004A74FFF0758CFD758AA8D28C12234BC23F
:10329D008C758CFD758AA890A015E030E00D123D5F
:1032AD00AC90A0A0E04401F054FEF0D007D006D0C1
:1032BD0005D004D003D002D001D000D0D0D082D020
:0632CD0083D0F0D0E032D6
:101CE30042105A68011300000000000000000000C9
:101CF30000000000000000000000000000004F543E
:101D0300418000FF0000006C000000005801121029
:101D13007B00005100000000000000004F364280AD
:101D230000FF000001FF00000000000000000000B1
:101D3300000000000000000000004F28438001FF66
:101D43000504000000000000000000000000000087
:101D530000000000000000004F1A448101FF000052
:101D63000000000000000000000000000000000070
:101D73000000000000004F2C508101FF0A0000000A
:101D83000000000000000000000000000000000050
:101D9300000000004F1E518101FF00000000000001
:101DA3000000000000000000000000000000000030
:101DB30000004F22068101FF8A000000000000009E
:101DC3000000000000000000000000000000000010
:101DD3004F22068101FF8A0000000000000000007E
:101DE30000000000000000000000000000004F227F
:101DF300068101FF0A00000000000000000000004F
:101E03000000000000000000000000004F220681D7
:101E130001FF8A0100000000000000000000000034
:101E2300000000000000000000004F2C508101FF63
:101E33008A00000000000000000000000000000015
:101E4300000000000000000044125A90010000004E
:101E5300000000000000000000000000000000007F
:101E63000000000000004402000000000000000029
:101E7300000000000000000000000000000000005F
:101E8300000000000000000000000000000000004F
:101E9300000000000000000000000000000000003F
:021EA30000003D
:101AC1004102600041022000410245004102440000
:101AD100410256004102430041025E0141025B00A6
:101AE10041026D0141025C0041024C00410258007B
:101AF10041025100410257004102220041024600C9
:101B010041024800410249014102470141021F00CF
:0D1B110041026B0046026542105A68011344
:0B3F0200EF1FAC0670011E4C70F62291
:1035C900E4900245F0900258F0900257F0900251B1
:1035D900F0900254F0900252F09002F2F0900247FB
:1035E90004F0E490026FF090024FF090025CF090CA
:1035F900021D7406F0E490026EF0780D76FF9002D9
:103609006004F0E4780EF690022374FFF0A3F0A3AF
:10361900F0A3F0A3F0A3F0A3F0A3F0A3F0A3F0A309
:04362900F0A3F022F8
:073F140090C1167401F022B8
:10362D00E490C18CF090C18D740AF090C193740830
:10363D00F090C19574A0F090C1967403F090C1976D
:10364D007440F090C1997401F090C1A87480F0E4B9
:10365D0090C1A9F090C1AC7462F090C19F7468F0F4
:10366D0090C1A27434F090C1317412F090C13274D3
:10367D003CF090C13304F090C13404F090C1357426
:03368D0042F022E6
:103B000090B00B74C4F090B010F090B00874B3F0A3
:103B1000123F1412362D90B00B74E5F090B0107473
:0F3B2000C5F01235C990900574BFF074FFF02204
:10348300E490024FF090021DE0FF90024FE0C39FD3
:103493005054E0FF90026EE075F01EA424E3F58221
:1034A300E5F0341CF583E5822FF582E43583F5835B
:1034B300E49390021EF0EFB4011C90026FE05407F6
:1034C30025E0FF900255F090021EE054F1F04FF01A
:1034D30090026FE004F090021EE090C19AF0900217
:1034E3004FE004F0809F90C1987408F0E4F090C11D
:0B34F300997409F09002587401F02257
:1034FE00E490024FF090021DE0FF90024FE0FEC3F9
:10350E009F503F74652EF582E43402F583E09002FD
:10351E001EF0EEB4011C90026FE0540725E0FF9000
:10352E000255F090021EE054F1F04FF090026FE061
:10353E0004F090021EE090C19AF090024FE004F069
:10354E0080B390C1987408F0E4F090C1997409F0BA
:07355E009002587401F022F5
:1038E6007F06900265E4F0A3DFFC9002657442F067
:1038F600A37410F0900225E0900267F0543F25E093
:1039060025E0FF900226E05403FE4F900268F0EE99
:1039160025E025E0FF900225E054C0C413135403AC
:093926004F900269F0A37413F044
:01392F002275
:1030C0007F017E00123B66900259E0640F600302AC
:1030D0003177900226E020E7030231777F647E009B
:1030E000123F02900225E0541F24FE602714603135
:1030F00014603B24F46045146060241070799002E1
:103100006E7401F090021D7416F012348390024A1E
:103110007401F02290026E7402F090021D740E8011
:103120001890026E7403F090021D740A800B9002D6
:103130006E7404F090021D7406F0801B780EE69009
:10314000026E700B7405F090021D740AF080087412
:103150000BF090021D14F002348390026E7406F09E
:1031600090021DF012348390024A7411F0780D76AB
:083170000190A0307425F0224B
:10369000900252E07029900259E024F9600514600C
:1036A0000F804A90026E740DF090021D7402800B20
:1036B00090026E740CF090021D7406F00234839038
:1036C0000259E024F16023240E70227F647E0012F0
:1036D0003F02E490026EF090021D7406F01238E68C
:0E36E0001234FE90024A7402F0221230C02210
:10337C00023C4BE493A3F8E493A34003F68001F2E0
:10338C0008DFF48029E493A3F85407240CC8C33352
:10339C00C4540F4420C8834004F456800146F6DF21
:1033AC00E4800B01020408102040809018FBE47E9E
:1033BC00019360BCA3FF543F30E509541FFEE49316
:1033CC00A360010ECF54C025E060A840B8E493A3DD
:1033DC00FAE493A3F8E493A3C8C582C8CAC583CA08
:1033EC00F0A3C8C582C8CAC583CADFE9DEE780BEC0
:011B1E0000C6
:10043D00E709F608DFFA8046E709F208DFFA803EA1
:10044D0088828C83E709F0A3DFFA8032E309F6088E
:10045D00DFFA8078E309F208DFFA807088828C83F6
:10046D00E309F0A3DFFA806489828A83E0A3F608AA
:10047D00DFFA805889828A83E0A3F208DFFA804C84
:10048D0080D280FA80C680D4806980F2803380105B
:10049D0080A680EA809A80A880DA80E280CA8033C4
:1004AD0089828A83ECFAE493A3C8C582C8CCC5833C
:1004BD00CCF0A3C8C582C8CCC583CCDFE9DEE7800C
:1004CD000D89828A83E493A3F608DFF9ECFAA9F08B
:1004DD00EDFB2289828A83ECFAE0A3C8C582C8CCE1
:1004ED00C583CCF0A3C8C582C8CCC583CCDFEADEFA
:1004FD00E880DB89828A83E493A3F208DFF980CC5C
:10050D0088F0EF60010E4E60C388F0ED2402B40454
:10051D000050B9F582EB2402B4040050AF232345FB
:06052D00822390048D738F
:10053300BB010689828A83E0225002E722BBFE02C6
:09054300E32289828A83E49322F9
:10054C00BB010CE58229F582E5833AF583E0225064
:10055C0006E92582F8E622BBFE06E92582F8E222AE
:0D056C00E58229F582E5833AF583E49322C8
:10057900BB010689828A83F0225002F722BBFE0161
:02058900F3225B
:10058B00F8BB010DE58229F582E5833AF583E8F0A6
:10059B00225006E92582C8F622BBFE05E92582C852
:0205AB00F2223A
:1005AD00EF8DF0A4A8F0CF8CF0A428CE8DF0A42E62
:0205BD00FE221C
:1005BF00BC000BBE0029EF8DF084FFADF022E4CC20
:1005CF00F875F008EF2FFFEE33FEEC33FCEE9DECE9
:1005DF00984005FCEE9DFE0FD5F0E9E4CEFD22ED2F
:1005EF00F8F5F0EE8420D21CFEADF075F008EF2F79
:1005FF00FFED33FD4007985006D5F0F222C398FD6A
:05060F000FD5F0EA2206
:10061400C5F0F8A3E028F0C5F0F8E5821582700271
:060624001583E038F0220E
:10062A00E88FF0A4CC8BF0A42CFCE98EF0A42CFC6F
:10063A008AF0EDA42CFCEA8EF0A4CDA8F08BF0A4ED
:10064A002DCC3825F0FDE98FF0A42CCD35F0FCEB4C
:10065A008EF0A4FEA9F0EB8FF0A4CFC5F02ECD3911
:0F066A00FEE43CFCEAA42DCE35F0FDE43CFC227E
:1006790075F008758200EF2FFFEE33FECD33CDCC38
:1006890033CCC58233C5829BED9AEC99E5829840BB
:100699000CF582EE9BFEED9AFDEC99FC0FD5F0D698
:1006A900E4CEFBE4CDFAE4CCF9A88222B800C1B9C2
:1006B9000059BA002DEC8BF084CFCECDFCE5F0CB00
:1006C900F97818EF2FFFEE33FEED33FDEC33FCEB39
:1006D90033FB10D703994004EB99FB0FD8E5E4F9F4
:1006E900FA227818EF2FFFEE33FEED33FDEC33FCE1
:1006F900C933C910D7059BE99A4007EC9BFCE99AD5
:10070900F90FD8E0E4C9FAE4CCFB2275F010EF2F19
:10071900FFEE33FEED33FDCC33CCC833C810D70719
:100729009BEC9AE899400AED9BFDEC9AFCE899F854
:0E0739000FD5F0DAE4CDFBE4CCFAE4C8F922E7
:10074700EB9FF5F0EA9E42F0E99D42F0E89C45F008
:01075700227F
:10075800E8600FECC313FCED13FDEE13FEEF13FF7F
:03076800D8F122A3
:10076B00E8600FEFC333FFEE33FEED33FDEC33FCEC
:03077B00D8F12290
:0C077E00ECF0A3EDF0A3EEF0A3EFF022EE
:10078A00A8828583F0D083D0821207A11207A11212
:10079A0007A11207A1E473E493A3C583C5F0C58337
:1007AA00C8C582C8F0A3C583C5F0C583C8C582C8B9
:0107BA00221C
:10082D00E5082473F582E43402F583E0050822908F
:10083D000270300703900273E475F0011207E702AE
:10084D0005332000E97F2ED2008018EF540F24903D
:10085D00D43440D4FF30040BEF24BFB41A0050033E
:10086D002461FFE50960021509050CE50C70020510
:10087D000B30070E900270E475F0011207E7EF02DE
:10088D000579023BFE7403D2078003E4C207F50825
:10089D009002701207FEE4F509F50BF50CE5096001
:1008AD00077F2012087080F5750AFFC201C200C2D1
:1008BD0002C203C205C206C20812083CFF700D3009
:1008CD0007057F00120881AF0CAE0B22B4255FC265
:1008DD00D5C20412083CFF24D0B40A00501A75F09A
:1008ED000A780930D50508B6FF0106C6A426F620FC
:1008FD00D5047002D20380D924CFB41A00EF50046E
:10090D00C2E5D204020A82D20180C6D20080C0D2D2
:10091D000280BCD2D580BAD20580B47F2012087077
:10092D002002077401B5090040F112082DFF1208CD
:10093D00700208AAD208D206809512082DFB120863
:10094D002DFA12082DF94A4B700679537A0B7BFF5D
:10095D0020022EE509602A7E008E82758300120525
:10096D004C60060EEE650A70F0C2D5EBC0E0EAC031
:10097D00E0E9C0E0EE120AC9D0E0F9D0E0FAD0E02B
:10098D00FB120533FF60AAEBC0E0EAC0E0E9C0E06E
:10099D00120870D0E02401F9D0E03400FAD0E0FB69
:1009AD00E50A0460DCD50AD980877BFF7A0A79C510
:1009BD00D202809C791080027908C206C208800894
:1009CD00D2D5790A8004790AC2D5E50A047002F5F8
:1009DD000AE4FAFDFEFF12082DFC7B08200113121C
:1009ED00082DFD7B1030000A12082DFE12082DFF78
:1009FD007B20EC3382D592D55013C3E43000069F93
:100A0D00FFE49EFEE42001039DFDE49CFCE4CBF895
:100A1D00C201EC700CCFCECDCCE824F8F870F38089
:100A2D0017C3EF33FFEE33FEED33FDEC33FCEB3349
:100A3D00FB994002FB0FD8E9EB300105F8D0E0C47B
:100A4D0048B201C0E00AEC4D4E4F78207B0070C2D9
:100A5D00EAB50A0040BCC0E0120ACBD0F0D0E020CD
:100A6D000104C4C0E0C4B201C0F0120859D0F0D5E1
:100A7D00F0EB0208AA12080709475309C1580918D3
:100A8D004C09144209C54F09CD4409CD49092D43DF
:080A9D0009D35509B74609B75A
:100AA5004509B7470B7350091C2D09202E09432B07
:100AB5000924230941200B5C2A08DC480000093B76
:100AC5003F3F3F00790AA2D5200314300509B9102C
:100AD500020404B9080104A2D5200602500104202D
:100AE50002689202B509005034C0E07F2030031936
:100AF5007F30A20272067205500F120B22C202C28B
:100B050006C205C2087F30800F300503E9C0E01238
:100B15000870300503D0E0F9D0E0B509CC300517F1
:100B25007F30B9100C1208707F583004077F788029
:100B350003B908031208703002057F2D0208707F83
:100B4500202008F87F2B2006F322920280CF286E02
:100B5500756C6C2900D20112082D3001F8C201789C
:100B65000930D50108F60208DC2D50434958120812
:100B75002D2403B405004001E4900B6E9312086127
:0D0B8500743A120861D2037509040209C117
:1007BB00EF4E6012EF60010EEDBB010B89828A8355
:1007CB00F0A3DFFCDEFA2289F05007F709DFFCA962
:0C07DB00F022BBFEFCF309DFFCA9F022B9
:1007E700F8E0FBA3A3E0F925F0F0E582158270029B
:0707F7001583E0FA38F0223F
:0907FE00EBF0A3EAF0A3E9F022FC
:10080700D083D082F8E4937012740193700DA3A380
:1008170093F8740193F5828883E473740293686094
:06082700EFA3A3A380DF94
:103BFE00EFB40A07740D123C09740A309811A89993
:103C0E00B8130CC2983098FDA899C298B811F63026
:073C1E0099FDC299F59922FE
:00000001FF
