:0300000002336167
:0C336100787FE4F6D8FD75815D0233A88A
:1018FB006100000000FFFFFFFFFFFF000ED432313D
:10190B0000888888201C0103800C07780A0DC9A069
:10191B005747982712484C000000010101010101B3
:10192B0001010101010101010101023A8018713825
:10193B002D40582C450080387400001E000000001C
:10194B00000000000000000000000000000000008C
:10195B0000FC000A202020202020202020202020F6
:10196B00000000FC004C6F6E7469756D0A2020201E
:10197B0020200139020312F123090707830100001C
:10198B0065030C00100000000000000000000000C8
:10199B00000000000000000000000000000000003C
:1019AB00000000000000000000000000000000002C
:1019BB00000000000000000000000000000000001C
:1019CB00000000000000000000000000000000000C
:1019DB0000000000000000000000000000000000FC
:1019EB0000000000000000000000000000000000EC
:0419FB00000000B632
:0B2037009002BEEBF0A3EAF0A3E9F07A
:102042009002AEE0FEA3E0FF9002ADE02FFF90020F
:10205200ACE03EFE9002B1E02FFF9002B0E03E9075
:1020620002C1F0A3EFF09002B7E0FF9002B6E02FBA
:10207200FFE433FE9002B8E07C002FFFEC3E9002BA
:10208200C3F0A3EFF0E47B0AFAF9F89002A4E0FCB3
:10209200A3E0FDA3E0FEA3E0FF1206B59002BEE0BE
:1020A200FBA3E0FAA3E0F9EF120579E47B0AFAF95F
:1020B200F89002A4E0FCA3E0FDA3E0FEA3E0FF127F
:1020C20006B5E4FB7A01F9F81206B59002BEE0FB10
:1020D200A3E0FAA3E0F9900001EF12058B9002AAA7
:1020E200E0FEA3E090000212058B9002C2E0900095
:1020F2000312058BEEC4F8540FC868FFAD079002B7
:10210200C1E02D90000412058B9002B5E09000050D
:1021120012058B9002C4E090000612058B9002B467
:10212200E0C4F8540FC868FFAC079002C3E02C90DB
:10213200000712058B9002ADE090000812058B900B
:1021420002AFE090000912058B9002B6E0540FC472
:1021520054F0FFA3E0540F2F90000A12058B900257
:10216200AEE0C4F8540FC868FFAC079002ACE07E42
:10217200007806C333CE33CED8F92CFF9002B6E0F6
:10218200C4540F25E025E02FFFA3E0C4540F2F9085
:10219200000B12058B9002ABE090000C12058B90A5
:1021A20002B5E090000D12058B9002B4E02D900074
:1021B2000E12058B9002B9E025E04418FFA3E0253A
:0A21C200E025E04F90001102058BAC
:0B33ED009002BEEBF0A3EAF0A3E9F0B1
:1033F800E4FFFEEEC3947F7480948050189002BE60
:10340800E0FBA3E0FAA3E0F98E8275830012054C75
:103418002FFF0E80DEC3E49FFF9002BEE0FBA3E017
:10342800FAA3E0F990007FEF12058BE4FFFEEEC3EC
:10343800947F74809480501EEE2480FDE433FC90C9
:1034480002BEE0FBA3E0FAA3E0F98D828C831205AB
:103458004C2FFF0E80D8C3E49FFF9002BEE0FBA371
:0C346800E0FAA3E0F99000FFEF02058BF2
:0B19FF004402E6000000004102DA0094
:101A0A005702A400024414089807800058002C00CA
:101A1A009404650438040524010143029E0A040162
:0F1A2A004302A1040700460298000000000001DB
:103A9000900298E090D20CF0900299E090D20DF054
:103AA00090029AE090D20EF090029BE090D20FF03C
:103AB00090029CE090D210F090029DE090D211F024
:013AC00022E3
:103C3C009002DB7401F09002E4F0E49002D8F09072
:103C4C0002E004F09002EBF09002E5F09002F074C8
:053C5C0008F0021CE16C
:103DD200758911C28CC28A758CF7758A40C28E753C
:093DE2008DB1758BE075A88E22ED
:070003009090627499F02255
:103DEB0090B012743CF090DAA3744BF090DAA47498
:093DFB0005F090B0307446F0228E
:103E040090DAA374E1F090DAA47405F090B0307401
:093E140042F090B012743EF0225D
:103A240090C1AF74C3F090DAFC740FF090DAA37411
:103A3400E1F090DAA47405F090B0307442F0900292
:103A4400D9E0441190D800F090B012743EF0E478BC
:063A540043F67823F62280
:073D8200F0123E68123DB88B
:103D890090D005E04440F090A0307480F090C006D7
:043D99007408F02298
:103BC80090A09074FBF090B005746FF07F017E00B8
:103BD800123B5790B00574E0F07F017E00123B570E
:073BE80090B005742BF022E0
:103E680090D005E04403F090A0A174FFF0747FF0B7
:053E780090A091F02272
:103DB800E490D219F090D21C74FEF090A090E054D8
:0A3DC800FEF090A0A0E054FEF022EF
:1037EF00780DE664017046F690024AE06411700CA1
:1037FF00780E76017406F0E4900258F090024AE0D9
:10380F00640670297F587E02123B5790026E740730
:10381F00F090021D740AF090024A74FFF012347493
:0E382F00E4900258123D829002F27401F022E1
:103CAB009002DBE060127B017A0079361220377BC1
:103CBB00017A0079481220377B017A0079000233B0
:013CCB00ED0B
:0636DF007E007D007C006E
:1036E5009002BE12077E90D8557480F09002BEE01D
:1036F500FCA3E0FDA3E0FEA3E0FF7810120758EF5E
:10370500540FFF90D852EFF09002BEE0FCA3E0FD0D
:10371500A3E0FEA3E0FF780812075890D851EFF018
:103725009002BEA3A3A3E0FF90D850EFF09002C291
:06373500E090D853F022E1
:102D66009002C27412F07F001236DF90029EE0904D
:102D760002C2F07F011236DF90029FE0448090028B
:102D8600C2F07F021236DF9002A0E09002C2F07F0E
:102D9600031236DF9002C27401F07F041236DFE4BC
:102DA6009002C2F07F05FEFDFC1236E5E49002C2F9
:102DB600F07F06FEFDFC1236E59002C27401F07F3C
:102DC600071236DF9002C27402F07F081236DFE483
:102DD6009002C2F07F09FEFDFC1236E5E49002C2C5
:102DE600F07F0AFEFDFC1236E5E49002C2F07F0B8E
:102DF600FEFDFC1236E5E49002C2F07F0DFEFDFCFE
:102E06001236E59002C27404F07F0E1236DFE490AB
:102E160002C2F07F0FFEFDFC1236E5E49002C2F01E
:102E26007F20FEFDFC1236E5E49002C2F07F21FE13
:102E3600FDFC1236E59002C27401F07F007E027D31
:062E4600007C000236E5ED
:103C61009002D8E0700D90026E740AF090021DF07F
:103C7100023474E490C006F07F01FE123B5790C0FD
:053C8100067408F022AA
:103E1D0090A046E04480F054BFF090B08CE0447028
:093E2D00F090A048E04404F022EA
:103E360090A046E04480F054BFF090B08CE0447708
:093E4600F090A048E054FBF022CA
:103EBB0090B08DE04407F090A046E054F7F0440436
:023ECB00F022E3
:0F3ECD0090B08DE04407F090A046E0440CF02246
:103E7D0090A046E04408F090B08D7407F090A048F3
:053E8D00E04410F022EA
:103E920090A046E04408F090B08D7407F090A048DE
:053EA200E054EFF022E6
:102C7D007FDB7ED1123D5FEF9002BEF0A3E4F07FCB
:102C8D00DC7ED1123D5F9002BFE02FF09002BEE0DE
:102C9D003400F07FE77ED1123D5FEF9002C0F0A3CC
:102CAD00E4F07FE87ED1123D5F9002C1E02FF090FD
:102CBD0002C0E03400F07FDD7ED1123D5FEF900267
:102CCD00C2F0A3E4F07FDE7ED1123D5F9002C3E03F
:102CDD002FF09002C2E03400F07FE97ED1123D5F0B
:102CED00EF9002C4F0A3E4F07FEA7ED1123D5F9035
:102CFD0002C5E02FF09002C4E03400F09002BEE077
:102D0D00FEA3E0FF9002A8E0B50641A3E0B5073CA5
:102D1D009002C0E0FEA3E0FF9002AAE0B5062DA34D
:102D2D00E0B507289002C2E0FEA3E0FF9002B2E0FA
:102D3D00B50619A3E0B507149002C4E0FEA3E0FFA9
:102D4D009002B4E06E7003A3E06F60079002DA7436
:082D5D0001F022E49002DAF01B
:012D6500224B
:102953007F547ED1123D5FEF9002F4F0A3E4F07F49
:10296300557ED1123D5F9002F5E02FF09002F4E026
:102973003400F0E0FEA3E0FFC39422EE940050087D
:10298300EF941EEE94005066C3EF942EEE94005025
:1029930008EF942AEE94005055C3EF9432EE94005E
:1029A3005008EF942EEE94005044C3EF945AEE94E3
:1029B300005008EF9456EE94005033C3EF9462EE48
:1029C30094005008EF945EEE94005022C3EF94B24B
:1029D300EE94005008EF94AEEE94005011C3EF94C0
:1029E300C2EE94005050EF94BEEE94004048900223
:1029F300E2E0FEA3E0FF24FEFDEE34FFFC9002F4D0
:102A0300E0FAA3E0FBC39DEA9C400EEF2402FFE43F
:102A13003EFED3EB9FEA9E400D123E1D7FC87E0013
:102A2300123B2D123E369002F4E0FFA3E09002E247
:102A3300CFF0A3EFF0229002F4E0FEA3E0FF4E708C
:102A4300259002E2E0FCA3E0FDEF6D7002EE6C6006
:102A5300159002E2EEF0A3EFF0123E1D7FC87E0058
:062A6300123B2D123E366D
:012A6900224A
:101CE100E49002BBF0A3F0A3F09002E2F0A3F09025
:101CF10002EFF09002D9F07FC8FE123B57120003A9
:101D0100123A90123E36123DD290C1177401F01270
:101D11003CAB12383D122D66E490D212F07838F6C1
:101D21009002ECF09002DAF090D221748FF090D210
:101D31002274FFF090D2677422F09002D8E0700B09
:101D4100123BC8123AF1123A24800AD2AF9002F241
:101D51007401123D829002D8E070031237EF90D2E5
:101D610017E020E603021E199002BBE004F0E064D4
:101D71000A70E2F090D212E0700C9002DAE0700684
:101D81009002ECE0607290B8B0E030E5C830E6C592
:101D91007FC87E00123B2D12270BEF70B890D21234
:101DA100F0783876019002DAF09002ECF012373BCD
:101DB100123E68123B9F9002BD7401F07F0A7E00C3
:101DC100123B2DE49002E1F09002BBF0123EBB7F8A
:101DD100547ED1123D5FEF9002E2F0A3E4F07F5513
:101DE1007ED1123D5F9002E3E02FF09002E2E034F9
:101DF10000F0123E1D021D56122C7D12270BEF70B2
:101E010003021D569002ECE06003021D567838F67D
:101E110004F0123E36021D56E49002BBF090D2123D
:101E2100E070087838E67003021D569002E1E00484
:101E3100F07F017E00123B579002E1E064C87039E7
:101E4100F090B8B0E020E51930E61690D217E02006
:101E5100E6279002D9E0440190D800F0123CED80D1
:101E61001890B8B0E030E51130E60E12270BEF7094
:101E710005120B928003123CCC7838E67003021DE8
:101E810056E4F69002ECE06003021D56F604F012EF
:051E91003E36021D5663
:103AC1000F123AEA0F123AEA0F123AEA7F369002DF
:103AD100AAE0C313FEEEFD7EC2123AEA9002AAE00A
:093AE100C313A3E013FD0F7EC224
:073AEA008F828E83EDF022B4
:103D4A007FB17EB8123D5F9002E6E4FCFDFE1207E9
:053D5A007E7FB27EB87F
:073D5F008F828E83E0FF223A
:0D3B20007D1A7F347EA0123AEA7F0A7E00F3
:103B2D00EF1FAA0670011E4A6013E4FCFDC3ED945D
:0D3B3D005EEC940150EA0DBD00010C80F01B
:013B4A002258
:100EC7007D107F837ED2123AEA7D217F347EA01285
:100ED7003AEA7F327E00123B2D7DE77F527E9012E9
:100EE7003AEA7FB17EB8123D5F9002BE123D54E4EC
:100EF700FCFDFEC004C005C006C0079002BEE0FCB2
:100F0700A3E0FDA3E0FEA3E0FF780812076BD00380
:100F1700D002D001D000EF2BFFEE3AFEED39FDEC09
:100F270038FC9002BE12077E7FB37EB8123D5FE4A5
:100F3700FCFDFEC004C005C006C0079002BEE0FC71
:100F4700A3E0FDA3E0FEA3E0FF780812076BD00340
:100F5700D002D001D000EF2BFFEE3AFEED39FDECC9
:100F670038FC9002BE12077E9002BEE0FCA3E0FDB3
:100F7700A3E0FEA3E0FFE47B02FAF9F812062A9049
:100F870002BE12077E7DFF7F527E90123AEA7D01F4
:100F97007F347EA0123AEA7FDB7ED1123D5FEF906D
:100FA70002C2F0A3E4F07FDC7ED1123D5F9002C362
:100FB700E02FF09002C2E03400F07FE7123D5FEFD0
:100FC7009002C4F0A3E4F07FE87ED1123D5F900267
:100FD700C5E02FF09002C4E03400F07FDF123D5FE0
:100FE700EF547F9002C8F0A3E4F07FE07ED1123D7A
:100FF7005F9002C9E02FF09002C8E03400F07FE173
:10100700123D5FEF1DFC7FE27ED1123D5FED2FFDAC
:10101700E43CFC9002C8E0FEA3E0FFC3ED9FFFECB9
:101027009EA3F0A3EFF09002C4E0FEA3E0FFC390FD
:1010370002C3E09FFF9002C2E09EFEC3EF9DFFEE5A
:101047009C9002C6F0A3EFF07FDD7ED1123D5FEFEB
:101057009002CCF0A3E4F07FDE7ED1123D5F9002D8
:10106700CDE02FF09002CCE03400F07FE9123D5F35
:10107700EF9002CEF0A3E4F07FEA7ED1123D5F90BD
:1010870002CFE02FF09002CEE03400F07FE6123D71
:101097005FA9077FE3123D5FEF7D00FC7FE47ED110
:1010A700123D5FED2FFDE43CFCC3ED999002D1F0BA
:1010B7009002CEA3E0FF9002CCA3E0C39FAE05C38E
:1010C7009E9002D0F07FDF7ED1123D5FEF5480C447
:1010D700131313540170047F0180027F00AB077F55
:1010E700E57ED1123D5FEF5480C413131354017092
:1010F700047F0180027F00AA079002BEE0FCA3E004
:10110700FDA3E0FEA3E0FF9002A412077E9002C2B7
:10111700E0FFA3E09002A8CFF0A3EFF09002C4E0B5
:10112700FFA3E09002AACFF0A3EFF09002C6E0FF82
:10113700A3E09002ACCFF0A3EFF09002C8E0FFA3CA
:10114700E09002AECFF0A3EFF09002CAE0FFA3E079
:101157009002B0CFF0A3EFF09002CCE0FFA3E090B5
:1011670002B2CFF0A3EFF09002CEE0FFA3E090022F
:10117700B4CFF0A3EFF09002D0E09002B6F0A3E96D
:10118700F09002D1E09002B8F0A3EBF0A3EAF07F71
:011197000156
:011198002234
:101E9600E4F9FBFD7F507EA0123AEA7D020F123A6A
:101EA600EA0D0F123AEAE4FD0F123AEA7DF10F123B
:101EB6003AEA7F50123D5FEF4402FD7F50123AEA44
:101EC6007FC87E00123B2D7F0C7EA0123D5FEF5433
:101ED6000260097F0C123D5FEF5401FB7F507EA02C
:101EE600123D5FEF54FDFD7F50123AEA7FEB7ED143
:101EF600123D5FEF5406F96003021F8C9002EBE07F
:101F0600FC7027EB64017D047F507EA0700D123AB1
:101F1600EAE4FD7F55123AEA022031123AEAE4FD7C
:101F26007F55123AEA7D03022031EC64027026EBFB
:101F36006401700CFD7F507EA0123AEA7DF0800BA2
:101F4600E4FD7F507EA0123AEA7DE07F55123AEA20
:101F5600E4FD0220319002EBE064016003022036CA
:101F6600EB6401700CFD7F507EA0123AEA7DFC8086
:101F76000BE4FD7F507EA0123AEA7DEC7F55123AC3
:101F8600EAE4FD022031E9640270509002EBE0FBC6
:101F96007A007014FD7F507EA0123AEA7D037F55C9
:101FA600123AEA7D3C022031EB64024A7013FD7F4F
:101FB600507EA0123AEA7D037F55123AEAE4FD808C
:101FC6006A9002EBE0640170677D047F507EA01288
:101FD6003AEAE4FD7F55123AEA8050E9640470500B
:101FE6009002EBE0FB7A007011FD7F507EA0123A62
:101FF600EA7F55123AEA7D3C8031EB64024A701260
:102006007D047F507EA0123AEAE4FD7F55123AEA3B
:1020160080199002EBE064017016FD7F507EA012DD
:102026003AEA7D0C7F55123AEAE4FD7F57123AEA06
:012036002287
:103921009002B9E06401601C7F057ED2123D5FEF19
:103931004404FD7F05123AEA123D5FEF54F7FD7F23
:1039410005123AEA9002BAE06401601C7F057ED25A
:10395100123D5FEF4410FD7F05123AEA123D5FEF21
:0939610054DFFD7F05123AEA2251
:1039AD007D437F357EA0123AEA7D210F123AEA7DE2
:1039BD00040F123AEA7D320F123AEA7D100F123AD5
:1039CD00EA7D430F123AEA7D210F123AEA7D040F88
:0F39DD00123AEA7D320F123AEA7D100F023AEAEF
:102F1F009002E0E0FB7A00640170047DFF8014EB07
:102F2F0064024A70159002E4E0640170047DF5803C
:102F3F00027DDD7F437EA0123AEA7D347F557EB05D
:102F4F00123AEA7D9F7F5D123AEA7F5F123AEA7D7D
:102F5F008F7F61123AEA7D9F7F63123AEA7F651293
:102F6F003AEA7D347F77123AEA7D9F7F7F123AEA01
:102F7F007F81123AEA7D8F7F83123AEA7D9F7F85A8
:102F8F00123AEA7F87123AEA9002E4E0704C7D34FD
:102F9F007F44123AEA7D9F7F4C123AEA7F4E123AF3
:102FAF00EA7D8F7F50123AEA7D9F7F52123AEA7F75
:102FBF0054123AEA7D347F66123AEA7D9F7F6E1291
:102FCF003AEA7F70123AEA7D8F7F72123AEA7D9F5A
:0B2FDF007F74123AEA7F76123AEA2271
:10143900E49002BEF0A3F0A3F0A3F07BE87A03F9ED
:10144900F89002A4E0FCA3E0FDA3E0FEA3E0FF12F4
:1014590006B59002E5E014601104702E7C007D034E
:101469001205AD9002A1E0FD800EEF25E0FFEE33FD
:10147900FE9002A1E0FD7C001205BF9002E0E0FDB4
:101489007C001205BF9002BEEFF09002BEE0240579
:10149900F0E0C394327480948050037432F07D3844
:1014A9007F3A7EB0123AEA7D010F123AEA9002BE03
:1014B900E0FFC394BB74809480501BC3EF945074B5
:1014C90080948040117D107F3E7EB0123AEA9002EE
:1014D900BF7401F080799002BEE0FFC3945074801C
:1014E9009480501BC3EF9428748094804011E4FDCC
:1014F9007F3E7EB0123AEA9002BF7402F0805090AB
:1015090002BEE0FFC3942874809480501BC3EF94FB
:10151900147480948040117D207F3E7EB0123AEA97
:101529009002BF7404F080279002BEE0FFC39414B8
:10153900748094805019C3EF940A74809480400F8A
:101549007D307F3E7EB0123AEA9002BF7408F07D8A
:10155900107F3F7EB0123AEA0F123AEA9002BFE0DA
:10156900FF9002BEE08FF0A4AEF07803C333CE3310
:10157900CED8F9FF7C007D1B1205BFAD077F417EE8
:10158900B0123AEA9002C1E004F07DDF7F0F7E904D
:10159900123AEA7F447EB0123D5FEF54BFFD7F44AB
:1015A900123AEA7F017E00123B2D7DFF7F0F7E906C
:1015B900123AEA7F447EB0123D5FEF4440FD7F441A
:1015C900123AEA7F647E00123B2DE4FD7F1E7EB84D
:1015D900123B267D017F1E7EB8123B267D037F1EAE
:1015E9007EB8123AEA7F647E00123B2D9002C1E078
:1015F900C3940374809480500B7FB07EB8123D5F12
:10160900EF30E480123B207DE77F527E90123AEA68
:10161900123D4AE4FCFDFEC004C005C006C00790A7
:1016290002E6E0FCA3E0FDA3E0FEA3E0FF780812D8
:10163900076BD003D002D001D000EF2BFFEE3AFEAA
:10164900ED39FDEC38FC9002E612077E7FB37EB8D7
:10165900123D5FE4FCFDFEC004C005C006C0079052
:1016690002E6E0FCA3E0FDA3E0FEA3E0FF78081298
:10167900076BD003D002D001D000EF2BFFEE3AFE6A
:10168900ED39FDEC38FC9002E612077E7DFF7F52B2
:101699007E90123AEA7D017F347EA0123AEAE47F15
:1016A90004FE1DFC9002E6E0F8A3E0F9A3E0FAA32A
:0A16B900E0FB12062A9002C0EFF0D9
:0116C3002204
:1025D900E47BE87A03F9F89002E6E0FCA3E0FDA3C6
:1025E900E0FEA3E0FF1206B5AA07EF75F00A84FE24
:1025F900FCEF75F012842402FBEF75F00684049059
:1026090002BEF0EE2405A3F0EA75F00C8404A3F0F1
:10261900EA75F01984F9EA75F00584FA7DBE7F0A36
:102629007E90123AEA0D123AEA7F447EB0123D5F7B
:10263900EF4480FD7F44123AEA7DC07EA0123AEA57
:102649007D807F49123AEAE4FDFF7EC2123AEA0F21
:10265900123AEA7F56123AEA7D0F7F20123AEA7D52
:10266900117F25123AEA7F2C123AEA9002C0E0FD66
:102679007F22123AEAAD010F123AEAAD020F123A7D
:10268900EAAD037F2F123AEAAD040F123AEA7DAAA6
:102699000F123AEAAD037F52123AEAAD040F123A29
:1026A900EA7DAA0F123AEA9002E4E07028AD047FAD
:1026B90026123AEAAD030F123AEA7DAA7F2E123AA0
:1026C900EAAD037F32123AEAAD040F123AEA7DAA63
:1026D9007F51123AEA9002BFE0FD7F287EC2123A8A
:1026E900EAEC2BFF9002BEE02FFD7F2A123AEA7D29
:1026F900107F1B123AEA7D507F1D123AEA7F2D02A4
:022709003AEAAA
:101199009002AAE0FD7F0C7EC2123AEA9002ABE00F
:1011A900FD0F123AEA9002B8E0FF9002B7E02FFD76
:1011B9007F35123AEA9002B4E0FD7F06123AEA90CE
:1011C90002B5E0FD0F123AEA7D557F0F123AEA9017
:1011D90002E0E0640160030212C89002F0E024F822
:1011E9006071240860030214389002AAE0FD7F3878
:1011F9007EC2123AEA9002ABE0FD0F123AEA90027F
:10120900B7E0FD7F04123AEA9002B8E0FD0F123A06
:10121900EA9002B6E0FD7F08123AEA7D0A0F123A17
:10122900EA0F123AEA0F123AEA9002E5E0FB7A0075
:10123900700B7D267F17123AEA7D3E807DEB6401B3
:101249004A60030214387D247F177EC2123AEA7D70
:101259001C80679002AAE0FD7F387EC2123AEA90AC
:1012690002ABE0FD0F123AEA9002B8E0FF9002B734
:10127900E02F14FD7F04123AEA7D010F123AEA1DAC
:101289007F08123AEA0D0F123AEA0F123AEA0F12E0
:101299003AEA9002E5E0FB7A00700B7D267F17128F
:1012A9003AEA7D248014EB64014A60030214387D14
:1012B900247F177EC2123AEA7D1E7F1202143590EE
:1012C90002AAE0FEA3E07802CEC313CE13D8F9EE4A
:1012D900FD7F107EC2123AEA9002AAE0FEA3E078EE
:1012E90002CEC313CE13D8F9FD7F117EC2123AEA9A
:1012F9009002F0E024F870030213A02408600302AE
:1013090014387F38123ACF9002B7E0FD7F04123AC1
:10131900EA9002B8E0FD0F123AEA9002B6E0FD7FCA
:1013290008123AEA7D0A123AC19002B7E0FD7F57E6
:10133900123AEA9002B8E0FD0F123AEA9002B6E0DA
:10134900FD0F123AEA7D0A0F123AEA0F123AEA0F32
:10135900123AEA9002E5E0FB7A0070187DA67F1741
:10136900123AEA7F4C123AEA7D3E7F12123AEA7F3C
:101379005D021435EB64014A60030214387DA47FD1
:10138900177EC2123AEA7F4C123AEA7D1C7F12128A
:101399003AEA7F5D0214359002AAE0C313FEEEFD1E
:1013A9007F38123AD89002B8E0FF9002B7E02F14C4
:1013B900FD7F04123AEA7D010F123AEA1D7F0812F5
:1013C9003AEA0D123AC19002B8E0FF9002B7E02F55
:1013D90014FD7F57123AEA7D010F123AEA1D0F12E6
:1013E9003AEA0D0F123AEA0F123AEA0F123AEA9064
:1013F90002E5E0FB7A0070177DA67F17123AEA7FB3
:101409004C123AEA7D247F12123AEA7F5D801DEB85
:1014190064014A701A7DA47F177EC2123AEA7F4C92
:10142900123AEA7D1E7F12123AEA7F5D123AEA22E7
:1016C4009002BE12078A000000009002D012078A1E
:1016D40000000000E49002D4F0A3F0FBFA123B20D7
:1016E400123D4AE4FCFDFEC004C005C006C00790DC
:1016F40002E6E0FCA3E0FDA3E0FEA3E0FF7808120D
:10170400076BA804A905AA06AB07D007D006D00525
:10171400D004EB2FFFEA3EFEE93DFDE83CFC9002DD
:10172400E612077E7FB37EB8123D5FE4FCFDFEC087
:1017340004C005C006C0079002E6E0FCA3E0FDA3D8
:10174400E0FEA3E0FF780812076BA804A905AA0627
:10175400AB07D007D006D005D004EB2FFFEA3EFE3E
:10176400E93DFDE83CFC9002E612077E7D017F34F2
:101774007EA0123AEAE47BE87A03F9F89002A4E046
:10178400FCA3E0FDA3E0FEA3E0FF1206B5C00790B2
:1017940002E0E0FBE4FAF9F8D0071206B59002D4AF
:1017A400EEF0A3EFF0E47BE87A03F9F89002E6E0C8
:1017B400FCA3E0FDA3E0FEA3E0FF1206B5AA06AB7E
:1017C400079002E0E0FD7C009002AEE0FEA3E0FFA3
:1017D4001205BF9002C2EEF0A3EFF09002E0E0FD2C
:1017E4007C009002B0E0FEA3E0FF1205BF9002C4AB
:1017F400EEF0A3EFF09002E0E0FD7C009002AAE09E
:10180400FEA3E0FF1205BF9002C6EEF0A3EFF09036
:1018140002C4E0FEA3E0FF9002C3E02FFF9002C2E7
:10182400E03EFE9002C7E02FFF9002C6E03EFEE4D9
:10183400FCFD9002C812077EEB2401FFE43AFEE4AB
:10184400FCFD9002C8E0F8A3E0F9A3E0FAA3E0FBF2
:1018540012062A9002CC12077E9002D5E024FFFFE4
:101864009002D4E034FFAB07FAE4F9F89002CCE03C
:10187400FCA3E0FDA3E0FEA3E0FF1206B59002D0B6
:1018840012077E9002E5E0640170169002C7E0251D
:10189400E0FF9002C6E033FE9002A1E0FD7C0080F0
:1018A4001A9002E5E0703C9002C6E0FEA3E0FF7CE3
:1018B400007D031205AD9002A1E0FD1205BFAB0748
:1018C400AA069002D0E0FCA3E0FDA3E0FEA3E0C3DF
:1018D4009BFFEE9AFEED9400FDEC9400FC9002BE9A
:1018E40012077E9002BEE0FCA3E0FDA3E0FEA3E0AD
:0718F400FF9002DC02077EF9
:10248F00E4FD7F1C7EC2123AEA9002A1E0147003B1
:10249F0002253E14606814603414600302257190A5
:1024AF0002F0E0FF9002A2E04FFD7F017EC2123AE0
:1024BF00EA9002F0E0FF9002A2E04FFD7F56123A41
:1024CF00EA7D017F02123AEA7D5502256D9002A244
:1024DF00E04430FF9002F0E04FFD7F017EC2123AE0
:1024EF00EA9002A2E04430FF9002F0E04FFD7F56E9
:1024FF00123AEA7D017F02123AEA7D9080609002E3
:10250F00A2E04420FF9002F0E04FFD7F017EC21257
:10251F003AEA9002A2E04420FF9002F0E04FFD7FE4
:10252F0056123AEA7D027F02123AEA7D58802F90C6
:10253F0002A2E04410FF9002F0E04FFD7F017EC247
:10254F00123AEA9002A2E04410FF9002F0E04FFD31
:10255F007F56123AEA7D037F02123AEAE4FD0F1228
:10256F003AEA7F147E00123B2D9002A3E0FD7F001C
:10257F007EC2123AEA9002F0E0701B7F14123D5FA8
:10258F00EF4480FD7F14123AEA7F00123D5FEF4463
:10259F0080FD7F008030E4FB7A01F9F89002DCE0E7
:1025AF00FCA3E0FDA3E0FEA3E0FF1206B5AD077F9D
:1025BF00027EC2123AEA9002DCE0FCA3A3A3E0FF82
:0A25CF00AD077F037EC2123AEA2234
:103B9F00120EC71239AD122F1F1214391225D990D8
:103BAF0002F0E070051232C480031216C4121E9682
:093BBF0012392112119902248F20
:1028390005010005110005100005290015360015D0
:102849003A0058000901FF000A0B0B28FF0010206D
:10285900110012621362186C190F1A001B002080F4
:10286900210724B0250426802707282029002A20AB
:102879002B002C142D002E142F00300431003204AB
:102889003300340C350036143700383439003A1324
:102899003B00FF000D01FF000900FF284BFF284DF9
:1028A900FF284FFF2851FF2853FF2855FF2857FFBE
:1028B9002859FF285BFF285DFF285FFF2861FF2853
:1028C90063FF2865FF2867FF2869FF286BFF286DCC
:1028D900FF286FFF2871FF2873FF2875FF2877FFEE
:1028E9002879FF287BFF287DFF287FFF2881FF2883
:1028F90083FF2885FF2887FF2889FF288BFF288DDC
:10290900FF288FFF2891FF2893FF2895FF2897FF1D
:102919002899FF289BFF289DFF289FFF28A10202D5
:10292900020202020202020202020202020202027E
:10293900020202020202020202020202020202026E
:0A2949000202020202020202020270
:072B8000E493FF7BFF7D02DF
:102B87009002C0EFF0A3EDF0A3EBF0A3EAF0A3E906
:012B9700F04D
:102B9800E4A3F07D407F1C7EC2123AEA9002C1E0B5
:102BA8006402704F7D0C7F187EC2123AEA7D047F62
:102BB800197EC2123AEA9002C0E0FD7F347EC2124A
:102BC8003AEA9002C2E0FBA3E0FAA3E0F912053367
:102BD800FD7F347EC2123AEA9002C2E0FBA3E0FA1B
:102BE800A3E0F990000112054CFD7F347EC2123A31
:102BF800EA80727D0E7F187EC2123AEA9002C1E026
:102C08002406FD7F197EC2123AEA9002C0E0FD7FD9
:102C1800347EC2123AEA9002C1E0FD7F347EC212CD
:102C28003AEAE4FD7F347EC2123AEAE49002C5F043
:102C38009002C1E0FF9002C5E0C39F50289002C2F5
:102C4800E0FBA3E0FAA3E0F9120533FD7F347EC26E
:102C5800123AEA9002C3E475F0011206149002C514
:102C6800E004F080CB7F017E00123B2DE4FD7F184D
:052C78007EC2023AEAF1
:1032C400E49002BEF0A3F0F09002BFE0FFC3942CA0
:1032D400748094805065EF902927939002BEF06427
:1032E400027023A3E075F003A424A3F582E4342838
:1032F400F583E493FB740193FA740293F99002BE8C
:10330400E0FD7F15802A9002BEE0FDD39402748014
:103314009480401FA3E075F003A424A3F582E43451
:1033240028F583E493FB740193FA740293F97F29DB
:10333400122B879002BFE004F0808D90283C7A28FD
:10334400793D122B807F967E00123B2D9028427A85
:0D335400287943122B807FC87E00023B2D9C
:102E4C000A206C616E65636E745858203D202562B3
:102E5C00640A0000010000000000000001000100F5
:102E6C00000001000100020000000200010003004C
:102E7C0000000300020007000000070002000B0026
:102E8C0000000B0002000F0000000F0004001F00E8
:102E9C0000001FFFFF000000000000000000000009
:102EAC000000000000000000000000000000000016
:102EBC00000000FFFF000000000000000000000008
:102ECC0000000000000000000000000000000000F6
:102EDC00000000FFFF0000000000000000000000E8
:102EEC0000000000000000000000000000000000D6
:102EFC00000000FFFF0000000000000000000000C8
:102F0C0000000000000000000000000000000000B5
:032F1C00000000B2
:101A39006064019400000000000000000000000044
:101A4900000000000000000000000000000000008D
:101A5900000000000000000000000000000000007D
:101A6900000000000000000000000000000000006D
:101A7900000000000000000000000000000000005D
:101A8900000000000000000000000000000000004D
:0D1A9900000000000000000042020584086B
:0B3EE80090D850EFF090D853EDF0227E
:103D2D0090D8557480F0E490D852F090D85104F0AA
:0C3D3D00EF90D850F090D854E0540FFFE5
:013D49002257
:0C3B4B00F090D80374F0F0E4F07F64FE0A
:103B5700EF1FAA0670011E4A6013E4FCFDC3ED9433
:0D3B670045EC940150EA0DBD00010C80F00A
:013B7400222E
:053F0C0090D012E0FF5F
:013F1100228D
:053F120090D854E0FF0F
:013F17002287
:103CCC0090900374EFF090900D74E0F090900F745E
:103CDC00BFF090900D74FFF090900FF0909003F067
:013CEC0022B5
:103C1600E4FF7849E6FEEFC39E50157839E62F2477
:103C260000F582E43400F583E090D011F00F80E2D5
:053C36007839EE26F6CE
:013C3B002266
:103C8600E4FF7849E6FEEFC39E50157839E62F2407
:103C960000F582E43400F583E090D011F00F80E265
:043CA600E47839F68F
:013CAA0022F7
:0C3EDC0090D0117420F0E490D013F0227C
:063F1800E490D011F0223C
:103E4F00E4FEEEC39F500C74242EF8E690D011F0D0
:083E5F000E80EFE490D013F097
:013E67002238
:06355600E6540F793AF77C
:10355C00783AE6FF6401703B784DE66F6035900277
:10356C00D9E0441190D800F0E4FD7F03123EE80F3F
:10357C00123EE80F123EE80F123EE890D819740183
:10358C00F090D81FF0783AE6784DF6123CCC9002C9
:10359C00D8E022783AE6FF64026004EFB4030E78B8
:0E35AC003AE6FF784D666005A607123CCC2279
:102FEA0074242FF8E6540F7837F664016007783AAC
:102FFA00E6640160147837E6FF6407600F783AE602
:10300A00FE64026004EEB40303023CCCEF64076082
:10301A00030230B0783AE6FF64026008EF640360A6
:10302A00030230B090D2127401F090D214F07823D7
:10303A00E6701A760190B83A7440F090B83B745032
:10304A00F090B83A7480F090B83B7452F0123CCCCD
:10305A0090DBC6E090D85AF090DBC7E090D85BF0DE
:10306A0090DBC9E090D85CF090DBCAE090D85DF0C4
:10307A0090DBCBE090D85EF090DBCDE090D85FF0AB
:10308A009002D9E0440190D800F090900574EFF0D6
:10309A0074FFF090900774F7F090900D74DFF0745D
:0730AA00FFF0909007F022F7
:053169009002D7EFF019
:10316E00E4FE90D8557480F0E490D852F090D85187
:10317E00F090D850F07844E690D852F008E690D807
:10318E0051F008E690D850F09002D7E0FDEEC39DC6
:10319E005012123F1274242EF8A60790D850E00455
:1031AE00F00E80E47844E6FC701308E6B4020E08D4
:1031BE00E6700AEDD3940240567F028010EC701038
:1031CE007845E6B4020A08E6B40205E4FF022FEAE7
:1031DE007845E6FF64226025EFB43002801F784404
:1031EE00E6B4060608E6700280137844E6B40607D5
:1031FE0008E6B4920280067844E6B40F129002D725
:0F320E00E0FF7E007D007B007A0079241207BB71
:01321D00228E
:0221CC00AE075C
:1021CE00E4FF9002D7F090D8557480F07844E690F2
:1021DE00D852F008E690D851F008E690D850F0EFBB
:1021EE00C39E5012744E2FF8E690D853F090D850EC
:1021FE00E004F00F80E97844E6FC704408E66401E0
:10220E00703E08E6703A784EE6783BF67835760101
:10221E00E490D212F07838F67847F6EED394014077
:10222E000B784FE6FF783CF6540F08F6EED3940287
:10223E00500302233B7850E6540F793AF702355C8F
:10224E00EC703A7845E66401703308E66401702D4F
:10225E00784EE6FF783CF6540F08F6EED394014024
:10226E0005784F123556EEC39403500302233B7884
:10227E0050E654036402600302233B80467844E632
:10228E00702808E66401702208E66402701C784E1D
:10229E00123556EEC39402500302233B784FE65498
:1022AE00036402600302233B80197844E6FF701C2E
:1022BE0008E6B4011708E6B40312784EE654036438
:1022CE0002706A90D819F090D81FF022EF703E7805
:1022DE0045E66401703708E66407703178237601AD
:1022EE00784EE690B83A30E402800C7440F090B824
:1022FE003B7450F090B83A7480F090B83B7452F042
:10230E00EED394014027784FE6702280147844E68D
:10231E00701B08E6B4011608E6B40811784EE67094
:0D232E000C90D8507408F090D8537401F052
:01233B00227F
:073EFE0090B02E7420F022A9
:1037970090B02C7471F090B8167450F0E490B0218A
:1037A700F090B02274C1F090B0287419F090900F87
:1037B700747FF074FFF07F0F7E00123B5790B814B0
:1037C7007440F07F0F7E00123B5774C0F07F0F7E6E
:1037D70000123B5774E0F07F0A7E00123B5774E4F7
:0837E700F090B82174E0F0221B
:103A5A0090B83A7480F090B83B7452F0E490B01F7A
:103A6A00F090B020F090900D74E1F090900374FE05
:103A7A00F0741FF090900F74BFF074FFF090900DE7
:063A8A00F0909003F02211
:1039EC0090A03274E4F0E490D000F090D002741007
:1039FC00F090D008740BF090D0097466F090D00A57
:103A0C00740EF090D00B7471F0E490A030F09090A4
:083A1C001074EFF074FFF022BA
:103B750090DAFC740FF090DAA374E4F090DAA47490
:103B850080F090B0307440F09002D9E0441190D8A4
:0A3B950000F0E47843F67823F622EE
:103D0E0090B03A74F8F090B092741FF090B01474B2
:0F3D1E0038F090B0187410F090B01A740AF022B8
:103D660090900774F7F074FFF090D2697405F090A4
:0C3D7600D2027454F090D2677420F02246
:10373B00E490B000F090B08CE04407F090B08E7441
:10374B0007F090B08F7477F090D1107420F090D177
:10375B00147419F090D11574C2F07D7F7F067E90A2
:10376B00123AEA7F017E00123B2D7DFF7F067E9091
:10377B00123AEA7DEE7F057E90123AEA7F017E00D7
:0C378B00123B2D7DFE7F057E90023AEA85
:10270B007F01123D2D9002C6EF123B4B7F117EDBFA
:10271B00123D5FEF547F9002BEF0A3E4F07F107E7A
:10272B00DB123D5F9002BFE02FF09002BEE0340061
:10273B00F07F137EDB123D5FEF547F9002C0F0A35E
:10274B00E4F07F127EDB123D5F9002C1E02FF09030
:10275B0002C0E03400F07F157EDB123D5FEF547F4B
:10276B009002C2F0A3E4F07F147EDB123D5F900277
:10277B00C3E02FF09002C2E03400F07F177EDB1233
:10278B003D5FEF547F9002C4F0A3E4F07F167EDB35
:10279B00123D5F9002C5E02FF09002C4E03400F0D0
:1027AB009002C6E024FE601D24FE603D2403707B76
:1027BB00C39002BFE0940A9002BEE0940040037FF6
:1027CB0001227F0022C39002BFE0940A9002BEE078
:1027DB009400500FC39002C1E0940A9002C0E094A1
:1027EB000040037F01227F0022C39002BFE0940AC6
:1027FB009002BEE09400502DC39002C1E0940A9069
:10280B0002C0E09400501EC39002C3E0940A9002F1
:10281B00C2E09400500FC39002C5E0940A9002C42A
:0D282B00E0940040037F01227F00227F0126
:01283800227D
:10001E0074FF900100F0A3F0A3F0A3F0A3F0A3F0FF
:10002E00A3F0A3F078087C017D01FB7A2E799F7EE8
:10003E00007F2012050D78287C017D017BFF7A2E32
:10004E0079BF7E007F2012050D78487C017D017BF3
:10005E00FF7A2E79DF7E007F2012050D78687C01F5
:10006E007D017BFF7A2E79FF7E007F2012050DE445
:10007E00900188F07F01123D2DEF540F900191F009
:10008E0090D214F09002D9E0440190D800F07BFF9A
:10009E007A2E794C90D214E0900273F0120898E404
:1000AE0090018DF0A3F0A3F0A3F0900188F09001E1
:1000BE0088E0FF25E025E0245FF582E4342EF58309
:1000CE00E474019375F011A4FE90D85AF0EF25E078
:1000DE0025E02461F582E4342EF583740193FF90BC
:1000EE00D85BF090D85CF090D85DEEF090D85EEFD3
:1000FE00F090D85F123B4B900191E0C39401407C8D
:10010E007F117EDB123D5FEF547FFE900188E0256C
:10011E00E02408F582E43401F583EEF0A3E4F07FE9
:10012E00107EDB123D5F900188E0FD25E02408F58E
:10013E0082E43401F583E48FF0120614ED25E024F9
:10014E0008F582E43401F583E0FEA3E0FF900100A0
:10015E00E0FCA3E0FDD3EF9DEE9C5020900188E0E3
:10016E00FD900100EEF0A3EFF0900189EDF090010B
:10017E008DE07008900188E090018DF0900191E083
:10018E00C39402407C7F137EDB123D5FEF547FFEF3
:10019E00900188E025E02428F582E43401F583EE11
:1001AE00F0A3E4F07F127EDB123D5F900188E0FD4C
:1001BE0025E02428F582E43401F583E48FF012065D
:1001CE0014ED25E02428F582E43401F583E0FEA346
:1001DE00E0FF900102E0FCA3E0FDD3EF9DEE9C500A
:1001EE0020900188E0FD900102EEF0A3EFF0900167
:1001FE008AEDF090018EE07008900188E090018EFB
:10020E00F0900191E0C3940450030203137F157E16
:10021E00DB123D5FEF547FFE900188E025E024481D
:10022E00F582E43401F583EEF0A3E4F07F147EDB77
:10023E00123D5F900188E0FD25E02448F582E4340C
:10024E0001F583E48FF0120614ED25E02448F582C3
:10025E00E43401F583E0FEA3E0FF900104E0FCA38B
:10026E00E0FDD3EF9DEE9C5020900188E0FD9001C3
:10027E0004EEF0A3EFF090018BEDF090018FE070A3
:10028E0008900188E090018FF07F177EDB123D5FB2
:10029E00EF547FFE900188E025E02468F582E43477
:1002AE0001F583EEF0A3E4F07F167EDB123D5F9046
:1002BE000188E0FD25E02468F582E43401F583E44D
:1002CE008FF0120614ED25E02468F582E43401F572
:1002DE0083E0FEA3E0FF900106E0FCA3E0FDD3EF78
:1002EE009DEE9C5020900188E0FD900106EEF0A35B
:1002FE00EFF090018CEDF0900190E0700890018885
:10030E00E0900190F0900188E004F0E0C39410506A
:10031E00030200BC90018DE0FDFF900189E0C39FB8
:10032E00FFE49400C313EF13FFED2FF090018EE066
:10033E00FDFF90018AE0C39FFFE49400C313EF1307
:10034E00FFED2FF090018FE0FDFF90018BE0C39F3A
:10035E00FFE49400C313EF13FFED2FF0900190E034
:10036E00FDFF90018CE0C39FFFE49400C313EF13D5
:10037E00FFED2FF090018AE0F925E025E0245FF5EE
:10038E0082E4342EF583740193C454F0FE900189F7
:10039E00E0FD25E025E0245FF582E4342EF583743C
:1003AE0001932E90D85AF0ED25E025E02461F582D8
:1003BE00E4342EF58374019390D85BF0E925E025A3
:1003CE00E02461F582E4342EF58374019390D85CB9
:1003DE00F090018CE0F925E025E0245FF582E4340D
:1003EE002EF583740193C454F0FE90018BE0FD252D
:1003FE00E025E0245FF582E4342EF5837401932E1C
:10040E0090D85DF0ED25E025E02461F582E4342EF0
:10041E00F58374019390D85EF0E925E025E0246120
:0E042E00F582E4342EF58374019390D85FF0CC
:01043C00229D
:103CED0090900774F7F090900D74DFF07F057E00D3
:103CFD00123B5774FFF0909007F07FF47E01023B6A
:013D0D00575E
:100B92009002CF74F0F0E4A3F07F01123D2DEF54E8
:100BA2000F9002CEF090D1CCE0FFE4FCFDFE781075
:100BB20012076B9002BE12077E90D1CDE0FFE4FCDB
:100BC200FDFE9002BEE0F8A3E0F9A3E0FAA3E02F55
:100BD200FFEE3AFEED39FDEC38FC780812076B9017
:100BE20002BE12077E90D1CEE0FB9002CFE0FFE47E
:100BF200FCFDFEEB5FFF9002BEE0F8A3E0F9A3E08C
:100C0200FAA3E02FFFEE3AFEED39FDEC38FC90023C
:100C1200BE12077E90D1CFE0FFE4FCFDFE781012F9
:100C2200076B9002C212077E90D1D0E0FFE4FCFD78
:100C3200FE9002C2E0F8A3E0F9A3E0FAA3E02FFFDE
:100C4200EE3AFEED39FDEC38FC780812076B9002A3
:100C5200C212077E90D1D1E0FB9002CFE0FFE4FC0C
:100C6200FDFEEB5FFF9002C2E0F8A3E0F9A3E0FA19
:100C7200A3E02FFFEE3AFEED39FDEC38FC9002C204
:100C820012077E90D1D2E0FFE4FCFDFE781012073D
:100C92006B9002C612077E90D1D3E0FFE4FCFDFE0A
:100CA2009002C6E0F8A3E0F9A3E0FAA3E02FFFEE7A
:100CB2003AFEED39FDEC38FC780812076B9002C65B
:100CC20012077E90D1D4E0FB9002CFE0FFE4FCFD5E
:100CD200FEEB5FFF9002C6E0F8A3E0F9A3E0FAA3FF
:100CE200E02FFFEE3AFEED39FDEC38FC9002C61221
:100CF200077E90D1D5E0FFE4FCFDFE781012076B71
:100D02009002CA12077E90D1D6E0FFE4FCFDFE906D
:100D120002CAE0F8A3E0F9A3E0FAA3E02FFFEE3A5B
:100D2200FEED39FDEC38FC780812076B9002CA120E
:100D3200077E90D1D7E0FB9002CFE0FFE4FCFDFEFE
:100D4200EB5FFF9002CAE0F8A3E0F9A3E0FAA3E0A8
:100D52002FFFEE3AFEED39FDEC38FC9002CA120785
:100D62007E9002CEE0B402289002C2E0FCA3E0FD35
:100D7200A3E0FEA3E0FF9002BEE0F8A3E0F9A3E047
:100D8200FAA3E0FBC31207477003020E66020E606D
:100D92009002CEE064046003020E669002C2E0FCA0
:100DA200A3E0FDA3E0FEA3E0FF9002BEE0F8A3E013
:100DB200F9A3E0FAA3E0FBC31207476003020E6047
:100DC2009002C6E0FCA3E0FDA3E0FEA3E0FF9002D8
:100DD200BEE0F8A3A3A3E0C31207476003020E60BC
:100DE2009002CAE0FCA3E0FDA3E0FEA3E0FF9002B4
:100DF200BEE0F8A3A3A3E0C312074770619002C646
:100E0200E0FCA3E0FDA3E0FEA3E0FF9002C2E0F855
:100E1200A3E0F9A3E0FAA3E0FBC3120747703F90F7
:100E220002CAE0FCA3E0FDA3E0FEA3E0FF9002C241
:100E3200E0F8A3A3A3E0C312074770229002CAE01E
:100E4200FCA3E0FDA3E0FEA3E0FF9002C6E0F8A34E
:100E5200E0F9A3E0FAA3E0FBC312074760069002A1
:100E6200D07401F09002D0E0603B9002D9E04401DE
:100E720090D800F090905174F0F07F017E00123B08
:100E82005774FFF0909007747FF07F017E00123B51
:100E92005774FFF0909003740FF07F017E00123BB5
:100EA2005774FF8017E490D219F090900774F7F00E
:100EB20090900D74DFF074FFF0909007F07FF47E55
:040EC20001123B5787
:010EC6002209
:103EA70090C0C0E030E7079002D97402F022E49096
:043EB70002D9F0221A
:10383D00123EFE123797123A5A123D0E123D661283
:10384D0039EC123B759002D9E0441190D800F090FC
:10385D002E7B740193FFC454F02FFF90D85AF09033
:10386D002E7D740193FE90D85BF090D85CF090D8CB
:0D387D005DEFF090D85EEEF090D85FF02285
:101AA600011000011300011100010F000112004195
:0B1AB60002F2004102F1004102F300C7
:102A6A00780FE630E71990C19EE0540F600B90C1D1
:102A7A00AF74C1F0123DEB80061235BA123E0478EB
:102A8A000FE6FF30E62590C19CE05407640190B040
:102A9A000B600574E5F0801374C5F090C196740B51
:102AAA00F0E4900254F090024C04F0EF20E5047F29
:102ABA000180027F0090024CE05F605A90C1A3E05F
:102ACA00FF900254E0FE2423F582E43402F583EFFA
:102ADA00F0EEB4010E900224E054701313543F90A8
:102AEA000252F0900252E02401FFE433FE900254B5
:102AFA00E0B50711E4B5060D90C1967403F0E490B1
:102B0A00024CF08011900254E004F090C1B6E0FF4C
:102B1A00780FF630E5A6780FE6FD30E43390C1B6BB
:102B2A007410F0900223E0FE540F900259F09002C4
:102B3A0052E0700C900259E0B40105900257800DE2
:102B4A00E4900258F0EE644F60069002457401F07A
:102B5A00ED30E22190B00B74C5F0900245E06005BB
:102B6A00E4F0023681900258E0600A90025774013C
:062B7A00F0900251F02270
:10233C00E49002D6F0783676FF7849F67FFF90D09D
:10234C000FE0541F7848F6123F0CEF54F07836F635
:10235C00EF540F7844F6123F0C7845A607123F0C49
:10236C007846A6077848E6C394044011123F0C78CF
:10237C0049A60706E6D39410400302248E7848E65B
:10238C00D394044020E49002D6F09002D6E0C378B7
:10239C0049965011123F0C9002D6E0244EF8A60735
:1023AC00E004F080E57836E6700302248624F070B1
:1023BC000302245324F0700302248624E0603924A1
:1023CC00F0604F24F0700302248624D06011241096
:1023DC00600302248E7849E6FF1221CC0224817816
:1023EC0049E6FFC39411400302248E123169123F57
:1023FC00187849E6FF023E4F7846E6B45012784909
:10240C00E6B4010C7848E6B40506784EE67839F661
:10241C0080637846E6B4500E7848E6B40408123F60
:10242C0018123C1680577846E6B450087848E6B443
:10243C00030280067846E6B43C05123F18803E90B5
:10244C00D0117410F080367846E6B4500E7848E619
:10245C00B40408123F18123C86800F7846E6B4503C
:10246C000F7848E6B40309123F18E47839F6800374
:10247C00123F188008123F188003123F18E490D0C6
:02248C0013F04B
:01248E00222B
:03000B0002396A4D
:10396A00C0E0C0F0C083C082C0D075D000C000C023
:10397A0001C002C003C004C005C006C007123EDC75
:10398A00D28C758CFD758AA8D007D006D005D004D4
:10399A00D003D002D001D000D0D0D082D083D0F0D2
:0339AA00D0E03238
:03001B0002388A1E
:10388A00C0E0C083C082C0D0C28E758DB1758BE096
:10389A009002EEE004F070069002EDE004F0D28EA1
:1038AA009002EDE0B4011DA3E0B4901890B8B0E026
:1038BA0030E40B9002EDE4F0A3F0C28E800690B0E3
:0D38CA000B74D5F0D0D0D082D083D0E03286
:103D9D0090D220E030E01390D21CE04401F054FEAC
:0B3DAD00F078387601E490D219F02283
:0300130002321E98
:10321E00C0E0C0F0C083C082C0D075D000C000C076
:10322E0001C002C003C004C005C006C00790025111
:10323E00E4F090A015E030E21F90A0A07404F0E43A
:10324E00F090C1B6E0780FF6FF74EFF0EF642060F7
:10325E0007C2AF122A6AD2AF9002F2E0602990A0A4
:10326E0016E030E72290A0A174FFF0747FF0900278
:10327E004A74FFF0758CFD758AA8D28C12233CC25D
:10328E008C758CFD758AA890A015E030E00D123D6E
:10329E009D90A0A0E04401F054FEF0D007D006D0DF
:1032AE0005D004D003D002D001D000D0D0D082D02F
:0632BE0083D0F0D0E032E5
:101B1F0042105A680113000000000000000000008E
:101B2F0000000000000000000000000000004F5403
:101B3F00418000FF0000006C0000000058011210EF
:101B4F007B00005100000000000000004F36428073
:101B5F0000FF000001FF0000000000000000000077
:101B6F00000000000000000000004F28438001FF2C
:101B7F00050400000000000000000000000000004D
:101B8F0000000000000000004F1A448101FF000018
:101B9F000000000000000000000000000000000036
:101BAF000000000000004F2C508101FF0A000000D0
:101BBF000000000000000000000000000000000016
:101BCF00000000004F1E518101FF000000000000C7
:101BDF0000000000000000000000000000000000F6
:101BEF0000004F22068101FF8A0000000000000064
:101BFF0000000000000000000000000000000000D6
:101C0F004F22068101FF8A00000000000000000043
:101C1F0000000000000000000000000000004F2244
:101C2F00068101FF0A000000000000000000000014
:101C3F000000000000000000000000004F2206819D
:101C4F0001FF8A01000000000000000000000000FA
:101C5F00000000000000000000004F2C508101FF29
:101C6F008A000000000000000000000000000000DB
:101C7F00000000000000000044125A900100000014
:101C8F000000000000000000000000000000000045
:101C9F0000000000000044020000000000000000EF
:101CAF000000000000000000000000000000000025
:101CBF000000000000000000000000000000000015
:101CCF000000000000000000000000000000000005
:021CDF00000003
:101AC1004102600041022000410245004102440000
:101AD100410256004102430041025E0141025B00A6
:101AE10041026D0141025C0041024C00410258007B
:101AF10041025100410257004102220041024600C9
:101B010041024800410249014102470141021F00CF
:0D1B110041026B0046026542105A68011344
:0B3EF300EF1FAC0670011E4C70F622A1
:1035BA00E4900245F0900258F0900257F0900251C0
:1035CA00F0900254F0900252F09002F2F09002470A
:1035DA0004F0E490026FF090024FF090025CF090D9
:1035EA00021D7406F0E490026EF0780D76FF9002E8
:1035FA006004F0E4780EF690022374FFF0A3F0A3BF
:10360A00F0A3F0A3F0A3F0A3F0A3F0A3F0A3F0A318
:04361A00F0A3F02207
:073F050090C1167401F022C7
:10361E00E490C18CF090C18D740AF090C19374083F
:10362E00F090C19574A0F090C1967403F090C1977C
:10363E007440F090C1997401F090C1A87480F0E4C8
:10364E0090C1A9F090C1AC7462F090C19F7468F003
:10365E0090C1A27434F090C1317412F090C13274E2
:10366E003CF090C13304F090C13404F090C1357435
:03367E0042F022F5
:103AF10090B00B74C4F090B010F090B00874B3F0B3
:103B0100123F0512361E90B00B74E5F090B01074A0
:0F3B1100C5F01235BA90900574BFF074FFF02222
:10347400E490024FF090021DE0FF90024FE0C39FE2
:103484005054E0FF90026EE075F01EA4241FF582F4
:10349400E5F0341BF583E5822FF582E43583F5836B
:1034A400E49390021EF0EFB4011C90026FE0540705
:1034B40025E0FF900255F090021EE054F1F04FF029
:1034C40090026FE004F090021EE090C19AF0900226
:1034D4004FE004F0809F90C1987408F0E4F090C12C
:0B34E400997409F09002587401F02266
:1034EF00E490024FF090021DE0FF90024FE0FEC308
:1034FF009F503F74652EF582E43402F583E090020D
:10350F001EF0EEB4011C90026FE0540725E0FF900F
:10351F000255F090021EE054F1F04FF090026FE070
:10352F0004F090021EE090C19AF090024FE004F078
:10353F0080B390C1987408F0E4F090C1997409F0C9
:07354F009002587401F02204
:1038D7007F06900265E4F0A3DFFC9002657442F076
:1038E700A37410F0900225E0900267F0543F25E0A2
:1038F70025E0FF900226E05403FE4F900268F0EEA9
:1039070025E025E0FF900225E054C0C413135403BB
:093917004F900269F0A37413F053
:013920002284
:1030B1007F017E00123B57900259E0640F600302CA
:1030C1003168900226E020E7030231687F647E00C8
:1030D100123EF3900225E0541F24FE602714603154
:1030E10014603B24F46045146060241070799002F0
:1030F1006E7401F090021D7416F012347490024A3D
:103101007401F02290026E7402F090021D740E8020
:103111001890026E7403F090021D740A800B9002E5
:103121006E7404F090021D7406F0801B780EE69018
:10313100026E700B7405F090021D740AF080087421
:103141000BF090021D14F002347490026E7406F0BC
:1031510090021DF012347490024A7411F0780D76C9
:083161000190A0307425F0225A
:10368100900252E07029900259E024F9600514601B
:103691000F804A90026E740DF090021D7402800B2F
:1036A10090026E740CF090021D7406F00234749056
:1036B1000259E024F16023240E70227F647E0012FF
:1036C1003EF3E490026EF090021D7406F01238D7BA
:0E36D1001234EF90024A7402F0221230B1223D
:10336D00023C3CE493A3F8E493A34003F68001F2FE
:10337D0008DFF48029E493A3F85407240CC8C33361
:10338D00C4540F4420C8834004F456800146F6DF30
:10339D00E4800B01020408102040809018FBE47EAD
:1033AD00019360BCA3FF543F30E509541FFEE49325
:1033BD00A360010ECF54C025E060A840B8E493A3EC
:1033CD00FAE493A3F8E493A3C8C582C8CAC583CA17
:1033DD00F0A3C8C582C8CAC583CADFE9DEE780BECF
:011B1E0000C6
:10043D00E709F608DFFA8046E709F208DFFA803EA1
:10044D0088828C83E709F0A3DFFA8032E309F6088E
:10045D00DFFA8078E309F208DFFA807088828C83F6
:10046D00E309F0A3DFFA806489828A83E0A3F608AA
:10047D00DFFA805889828A83E0A3F208DFFA804C84
:10048D0080D280FA80C680D4806980F2803380105B
:10049D0080A680EA809A80A880DA80E280CA8033C4
:1004AD0089828A83ECFAE493A3C8C582C8CCC5833C
:1004BD00CCF0A3C8C582C8CCC583CCDFE9DEE7800C
:1004CD000D89828A83E493A3F608DFF9ECFAA9F08B
:1004DD00EDFB2289828A83ECFAE0A3C8C582C8CCE1
:1004ED00C583CCF0A3C8C582C8CCC583CCDFEADEFA
:1004FD00E880DB89828A83E493A3F208DFF980CC5C
:10050D0088F0EF60010E4E60C388F0ED2402B40454
:10051D000050B9F582EB2402B4040050AF232345FB
:06052D00822390048D738F
:10053300BB010689828A83E0225002E722BBFE02C6
:09054300E32289828A83E49322F9
:10054C00BB010CE58229F582E5833AF583E0225064
:10055C0006E92582F8E622BBFE06E92582F8E222AE
:0D056C00E58229F582E5833AF583E49322C8
:10057900BB010689828A83F0225002F722BBFE0161
:02058900F3225B
:10058B00F8BB010DE58229F582E5833AF583E8F0A6
:10059B00225006E92582C8F622BBFE05E92582C852
:0205AB00F2223A
:1005AD00EF8DF0A4A8F0CF8CF0A428CE8DF0A42E62
:0205BD00FE221C
:1005BF00BC000BBE0029EF8DF084FFADF022E4CC20
:1005CF00F875F008EF2FFFEE33FEEC33FCEE9DECE9
:1005DF00984005FCEE9DFE0FD5F0E9E4CEFD22ED2F
:1005EF00F8F5F0EE8420D21CFEADF075F008EF2F79
:1005FF00FFED33FD4007985006D5F0F222C398FD6A
:05060F000FD5F0EA2206
:10061400C5F0F8A3E028F0C5F0F8E5821582700271
:060624001583E038F0220E
:10062A00E88FF0A4CC8BF0A42CFCE98EF0A42CFC6F
:10063A008AF0EDA42CFCEA8EF0A4CDA8F08BF0A4ED
:10064A002DCC3825F0FDE98FF0A42CCD35F0FCEB4C
:10065A008EF0A4FEA9F0EB8FF0A4CFC5F02ECD3911
:0F066A00FEE43CFCEAA42DCE35F0FDE43CFC227E
:1006790075F008758200EF2FFFEE33FECD33CDCC38
:1006890033CCC58233C5829BED9AEC99E5829840BB
:100699000CF582EE9BFEED9AFDEC99FC0FD5F0D698
:1006A900E4CEFBE4CDFAE4CCF9A88222B800C1B9C2
:1006B9000059BA002DEC8BF084CFCECDFCE5F0CB00
:1006C900F97818EF2FFFEE33FEED33FDEC33FCEB39
:1006D90033FB10D703994004EB99FB0FD8E5E4F9F4
:1006E900FA227818EF2FFFEE33FEED33FDEC33FCE1
:1006F900C933C910D7059BE99A4007EC9BFCE99AD5
:10070900F90FD8E0E4C9FAE4CCFB2275F010EF2F19
:10071900FFEE33FEED33FDCC33CCC833C810D70719
:100729009BEC9AE899400AED9BFDEC9AFCE899F854
:0E0739000FD5F0DAE4CDFBE4CCFAE4C8F922E7
:10074700EB9FF5F0EA9E42F0E99D42F0E89C45F008
:01075700227F
:10075800E8600FECC313FCED13FDEE13FEEF13FF7F
:03076800D8F122A3
:10076B00E8600FEFC333FFEE33FEED33FDEC33FCEC
:03077B00D8F12290
:0C077E00ECF0A3EDF0A3EEF0A3EFF022EE
:10078A00A8828583F0D083D0821207A11207A11212
:10079A0007A11207A1E473E493A3C583C5F0C58337
:1007AA00C8C582C8F0A3C583C5F0C583C8C582C8B9
:0107BA00221C
:10082D00E5082473F582E43402F583E0050822908F
:10083D000270300703900273E475F0011207E702AE
:10084D0005332000E97F2ED2008018EF540F24903D
:10085D00D43440D4FF30040BEF24BFB41A0050033E
:10086D002461FFE50960021509050CE50C70020510
:10087D000B30070E900270E475F0011207E7EF02DE
:10088D000579023BEF7403D2078003E4C207F50834
:10089D009002701207FEE4F509F50BF50CE5096001
:1008AD00077F2012087080F5750AFFC201C200C2D1
:1008BD0002C203C205C206C20812083CFF700D3009
:1008CD0007057F00120881AF0CAE0B22B4255FC265
:1008DD00D5C20412083CFF24D0B40A00501A75F09A
:1008ED000A780930D50508B6FF0106C6A426F620FC
:1008FD00D5047002D20380D924CFB41A00EF50046E
:10090D00C2E5D204020A82D20180C6D20080C0D2D2
:10091D000280BCD2D580BAD20580B47F2012087077
:10092D002002077401B5090040F112082DFF1208CD
:10093D00700208AAD208D206809512082DFB120863
:10094D002DFA12082DF94A4B700679537A0B7BFF5D
:10095D0020022EE509602A7E008E82758300120525
:10096D004C60060EEE650A70F0C2D5EBC0E0EAC031
:10097D00E0E9C0E0EE120AC9D0E0F9D0E0FAD0E02B
:10098D00FB120533FF60AAEBC0E0EAC0E0E9C0E06E
:10099D00120870D0E02401F9D0E03400FAD0E0FB69
:1009AD00E50A0460DCD50AD980877BFF7A0A79C510
:1009BD00D202809C791080027908C206C208800894
:1009CD00D2D5790A8004790AC2D5E50A047002F5F8
:1009DD000AE4FAFDFEFF12082DFC7B08200113121C
:1009ED00082DFD7B1030000A12082DFE12082DFF78
:1009FD007B20EC3382D592D55013C3E43000069F93
:100A0D00FFE49EFEE42001039DFDE49CFCE4CBF895
:100A1D00C201EC700CCFCECDCCE824F8F870F38089
:100A2D0017C3EF33FFEE33FEED33FDEC33FCEB3349
:100A3D00FB994002FB0FD8E9EB300105F8D0E0C47B
:100A4D0048B201C0E00AEC4D4E4F78207B0070C2D9
:100A5D00EAB50A0040BCC0E0120ACBD0F0D0E020CD
:100A6D000104C4C0E0C4B201C0F0120859D0F0D5E1
:100A7D00F0EB0208AA12080709475309C1580918D3
:100A8D004C09144209C54F09CD4409CD49092D43DF
:080A9D0009D35509B74609B75A
:100AA5004509B7470B7350091C2D09202E09432B07
:100AB5000924230941200B5C2A08DC480000093B76
:100AC5003F3F3F00790AA2D5200314300509B9102C
:100AD500020404B9080104A2D5200602500104202D
:100AE50002689202B509005034C0E07F2030031936
:100AF5007F30A20272067205500F120B22C202C28B
:100B050006C205C2087F30800F300503E9C0E01238
:100B15000870300503D0E0F9D0E0B509CC300517F1
:100B25007F30B9100C1208707F583004077F788029
:100B350003B908031208703002057F2D0208707F83
:100B4500202008F87F2B2006F322920280CF286E02
:100B5500756C6C2900D20112082D3001F8C201789C
:100B65000930D50108F60208DC2D50434958120812
:100B75002D2403B405004001E4900B6E9312086127
:0D0B8500743A120861D2037509040209C117
:1007BB00EF4E6012EF60010EEDBB010B89828A8355
:1007CB00F0A3DFFCDEFA2289F05007F709DFFCA962
:0C07DB00F022BBFEFCF309DFFCA9F022B9
:1007E700F8E0FBA3A3E0F925F0F0E582158270029B
:0707F7001583E0FA38F0223F
:0907FE00EBF0A3EAF0A3E9F022FC
:10080700D083D082F8E4937012740193700DA3A380
:1008170093F8740193F5828883E473740293686094
:06082700EFA3A3A380DF94
:103BEF00EFB40A07740D123BFA740A309811A899B2
:103BFF00B8130CC2983098FDA899C298B811F63036
:073C0F0099FDC299F599220D
:00000001FF
